{
  "contractName": "CarAsset",
  "abi": [
    {
      "inputs": [
        {
          "internalType": "address",
          "name": "_carsToken",
          "type": "address"
        }
      ],
      "stateMutability": "nonpayable",
      "type": "constructor"
    },
    {
      "anonymous": false,
      "inputs": [
        {
          "indexed": true,
          "internalType": "address",
          "name": "owner",
          "type": "address"
        },
        {
          "indexed": true,
          "internalType": "address",
          "name": "approved",
          "type": "address"
        },
        {
          "indexed": true,
          "internalType": "uint256",
          "name": "tokenId",
          "type": "uint256"
        }
      ],
      "name": "Approval",
      "type": "event"
    },
    {
      "anonymous": false,
      "inputs": [
        {
          "indexed": true,
          "internalType": "address",
          "name": "owner",
          "type": "address"
        },
        {
          "indexed": true,
          "internalType": "address",
          "name": "operator",
          "type": "address"
        },
        {
          "indexed": false,
          "internalType": "bool",
          "name": "approved",
          "type": "bool"
        }
      ],
      "name": "ApprovalForAll",
      "type": "event"
    },
    {
      "anonymous": false,
      "inputs": [
        {
          "indexed": true,
          "internalType": "address",
          "name": "previousOwner",
          "type": "address"
        },
        {
          "indexed": true,
          "internalType": "address",
          "name": "newOwner",
          "type": "address"
        }
      ],
      "name": "OwnershipTransferred",
      "type": "event"
    },
    {
      "anonymous": false,
      "inputs": [
        {
          "indexed": false,
          "internalType": "uint256",
          "name": "trade",
          "type": "uint256"
        },
        {
          "indexed": false,
          "internalType": "uint256",
          "name": "item",
          "type": "uint256"
        },
        {
          "indexed": false,
          "internalType": "uint256",
          "name": "timestamp",
          "type": "uint256"
        }
      ],
      "name": "TradeExecuted",
      "type": "event"
    },
    {
      "anonymous": false,
      "inputs": [
        {
          "indexed": false,
          "internalType": "uint256",
          "name": "trade",
          "type": "uint256"
        }
      ],
      "name": "TradeOpened",
      "type": "event"
    },
    {
      "anonymous": false,
      "inputs": [
        {
          "indexed": true,
          "internalType": "address",
          "name": "from",
          "type": "address"
        },
        {
          "indexed": true,
          "internalType": "address",
          "name": "to",
          "type": "address"
        },
        {
          "indexed": true,
          "internalType": "uint256",
          "name": "tokenId",
          "type": "uint256"
        }
      ],
      "name": "Transfer",
      "type": "event"
    },
    {
      "inputs": [
        {
          "internalType": "address",
          "name": "to",
          "type": "address"
        },
        {
          "internalType": "uint256",
          "name": "tokenId",
          "type": "uint256"
        }
      ],
      "name": "approve",
      "outputs": [],
      "stateMutability": "nonpayable",
      "type": "function"
    },
    {
      "inputs": [
        {
          "internalType": "address",
          "name": "owner",
          "type": "address"
        }
      ],
      "name": "balanceOf",
      "outputs": [
        {
          "internalType": "uint256",
          "name": "",
          "type": "uint256"
        }
      ],
      "stateMutability": "view",
      "type": "function",
      "constant": true
    },
    {
      "inputs": [
        {
          "internalType": "uint256",
          "name": "",
          "type": "uint256"
        }
      ],
      "name": "cars",
      "outputs": [
        {
          "internalType": "uint256",
          "name": "id",
          "type": "uint256"
        },
        {
          "internalType": "string",
          "name": "name",
          "type": "string"
        },
        {
          "internalType": "uint8",
          "name": "itemType",
          "type": "uint8"
        },
        {
          "internalType": "bool",
          "name": "minted",
          "type": "bool"
        },
        {
          "internalType": "uint256",
          "name": "mintPrice",
          "type": "uint256"
        },
        {
          "internalType": "string",
          "name": "image",
          "type": "string"
        }
      ],
      "stateMutability": "view",
      "type": "function",
      "constant": true
    },
    {
      "inputs": [
        {
          "internalType": "uint256",
          "name": "tokenId",
          "type": "uint256"
        }
      ],
      "name": "getApproved",
      "outputs": [
        {
          "internalType": "address",
          "name": "",
          "type": "address"
        }
      ],
      "stateMutability": "view",
      "type": "function",
      "constant": true
    },
    {
      "inputs": [
        {
          "internalType": "address",
          "name": "owner",
          "type": "address"
        },
        {
          "internalType": "address",
          "name": "operator",
          "type": "address"
        }
      ],
      "name": "isApprovedForAll",
      "outputs": [
        {
          "internalType": "bool",
          "name": "",
          "type": "bool"
        }
      ],
      "stateMutability": "view",
      "type": "function",
      "constant": true
    },
    {
      "inputs": [],
      "name": "name",
      "outputs": [
        {
          "internalType": "string",
          "name": "",
          "type": "string"
        }
      ],
      "stateMutability": "view",
      "type": "function",
      "constant": true
    },
    {
      "inputs": [],
      "name": "owner",
      "outputs": [
        {
          "internalType": "address",
          "name": "",
          "type": "address"
        }
      ],
      "stateMutability": "view",
      "type": "function",
      "constant": true
    },
    {
      "inputs": [
        {
          "internalType": "uint256",
          "name": "tokenId",
          "type": "uint256"
        }
      ],
      "name": "ownerOf",
      "outputs": [
        {
          "internalType": "address",
          "name": "",
          "type": "address"
        }
      ],
      "stateMutability": "view",
      "type": "function",
      "constant": true
    },
    {
      "inputs": [],
      "name": "renounceOwnership",
      "outputs": [],
      "stateMutability": "nonpayable",
      "type": "function"
    },
    {
      "inputs": [
        {
          "internalType": "address",
          "name": "from",
          "type": "address"
        },
        {
          "internalType": "address",
          "name": "to",
          "type": "address"
        },
        {
          "internalType": "uint256",
          "name": "tokenId",
          "type": "uint256"
        }
      ],
      "name": "safeTransferFrom",
      "outputs": [],
      "stateMutability": "nonpayable",
      "type": "function"
    },
    {
      "inputs": [
        {
          "internalType": "address",
          "name": "from",
          "type": "address"
        },
        {
          "internalType": "address",
          "name": "to",
          "type": "address"
        },
        {
          "internalType": "uint256",
          "name": "tokenId",
          "type": "uint256"
        },
        {
          "internalType": "bytes",
          "name": "_data",
          "type": "bytes"
        }
      ],
      "name": "safeTransferFrom",
      "outputs": [],
      "stateMutability": "nonpayable",
      "type": "function"
    },
    {
      "inputs": [
        {
          "internalType": "address",
          "name": "operator",
          "type": "address"
        },
        {
          "internalType": "bool",
          "name": "approved",
          "type": "bool"
        }
      ],
      "name": "setApprovalForAll",
      "outputs": [],
      "stateMutability": "nonpayable",
      "type": "function"
    },
    {
      "inputs": [
        {
          "internalType": "bytes4",
          "name": "interfaceId",
          "type": "bytes4"
        }
      ],
      "name": "supportsInterface",
      "outputs": [
        {
          "internalType": "bool",
          "name": "",
          "type": "bool"
        }
      ],
      "stateMutability": "view",
      "type": "function",
      "constant": true
    },
    {
      "inputs": [],
      "name": "symbol",
      "outputs": [
        {
          "internalType": "string",
          "name": "",
          "type": "string"
        }
      ],
      "stateMutability": "view",
      "type": "function",
      "constant": true
    },
    {
      "inputs": [
        {
          "internalType": "uint256",
          "name": "tokenId",
          "type": "uint256"
        }
      ],
      "name": "tokenURI",
      "outputs": [
        {
          "internalType": "string",
          "name": "",
          "type": "string"
        }
      ],
      "stateMutability": "view",
      "type": "function",
      "constant": true
    },
    {
      "inputs": [
        {
          "internalType": "address",
          "name": "from",
          "type": "address"
        },
        {
          "internalType": "address",
          "name": "to",
          "type": "address"
        },
        {
          "internalType": "uint256",
          "name": "tokenId",
          "type": "uint256"
        }
      ],
      "name": "transferFrom",
      "outputs": [],
      "stateMutability": "nonpayable",
      "type": "function"
    },
    {
      "inputs": [
        {
          "internalType": "address",
          "name": "newOwner",
          "type": "address"
        }
      ],
      "name": "transferOwnership",
      "outputs": [],
      "stateMutability": "nonpayable",
      "type": "function"
    },
    {
      "inputs": [
        {
          "internalType": "uint256",
          "name": "item",
          "type": "uint256"
        }
      ],
      "name": "mintItem",
      "outputs": [],
      "stateMutability": "payable",
      "type": "function",
      "payable": true
    },
    {
      "inputs": [
        {
          "internalType": "string",
          "name": "name",
          "type": "string"
        },
        {
          "internalType": "uint8",
          "name": "itemType",
          "type": "uint8"
        },
        {
          "internalType": "uint256",
          "name": "price",
          "type": "uint256"
        },
        {
          "internalType": "string",
          "name": "image",
          "type": "string"
        },
        {
          "internalType": "address",
          "name": "to",
          "type": "address"
        }
      ],
      "name": "addToMint",
      "outputs": [],
      "stateMutability": "nonpayable",
      "type": "function"
    },
    {
      "inputs": [
        {
          "internalType": "string",
          "name": "name",
          "type": "string"
        },
        {
          "internalType": "uint8",
          "name": "itemType",
          "type": "uint8"
        },
        {
          "internalType": "uint256",
          "name": "price",
          "type": "uint256"
        },
        {
          "internalType": "string",
          "name": "image",
          "type": "string"
        }
      ],
      "name": "addToMint",
      "outputs": [],
      "stateMutability": "nonpayable",
      "type": "function"
    },
    {
      "inputs": [
        {
          "internalType": "uint256",
          "name": "item",
          "type": "uint256"
        }
      ],
      "name": "getItemDetail",
      "outputs": [
        {
          "internalType": "string",
          "name": "",
          "type": "string"
        },
        {
          "internalType": "uint8",
          "name": "",
          "type": "uint8"
        },
        {
          "internalType": "uint256",
          "name": "",
          "type": "uint256"
        },
        {
          "internalType": "bool",
          "name": "",
          "type": "bool"
        },
        {
          "internalType": "string",
          "name": "",
          "type": "string"
        }
      ],
      "stateMutability": "view",
      "type": "function",
      "constant": true
    },
    {
      "inputs": [],
      "name": "getAvailableForMint",
      "outputs": [
        {
          "internalType": "uint256[]",
          "name": "",
          "type": "uint256[]"
        }
      ],
      "stateMutability": "view",
      "type": "function",
      "constant": true
    },
    {
      "inputs": [
        {
          "internalType": "uint256",
          "name": "item",
          "type": "uint256"
        }
      ],
      "name": "isApprovedForSale",
      "outputs": [
        {
          "internalType": "bool",
          "name": "",
          "type": "bool"
        }
      ],
      "stateMutability": "view",
      "type": "function",
      "constant": true
    },
    {
      "inputs": [
        {
          "internalType": "address",
          "name": "user",
          "type": "address"
        }
      ],
      "name": "getCollection",
      "outputs": [
        {
          "internalType": "uint256[]",
          "name": "",
          "type": "uint256[]"
        }
      ],
      "stateMutability": "view",
      "type": "function",
      "constant": true
    },
    {
      "inputs": [
        {
          "internalType": "uint256",
          "name": "_item",
          "type": "uint256"
        },
        {
          "internalType": "uint256",
          "name": "_price",
          "type": "uint256"
        },
        {
          "internalType": "bool",
          "name": "_useCarsToken",
          "type": "bool"
        }
      ],
      "name": "openTrade",
      "outputs": [],
      "stateMutability": "nonpayable",
      "type": "function"
    },
    {
      "inputs": [
        {
          "internalType": "uint256",
          "name": "_trade",
          "type": "uint256"
        }
      ],
      "name": "executeTradeBNB",
      "outputs": [],
      "stateMutability": "payable",
      "type": "function",
      "payable": true
    },
    {
      "inputs": [
        {
          "internalType": "uint256",
          "name": "_trade",
          "type": "uint256"
        }
      ],
      "name": "executeTradeCARS",
      "outputs": [],
      "stateMutability": "nonpayable",
      "type": "function"
    },
    {
      "inputs": [
        {
          "internalType": "uint256",
          "name": "_trade",
          "type": "uint256"
        }
      ],
      "name": "cancelTrade",
      "outputs": [],
      "stateMutability": "nonpayable",
      "type": "function"
    },
    {
      "inputs": [
        {
          "internalType": "uint256",
          "name": "_trade",
          "type": "uint256"
        }
      ],
      "name": "getTrade",
      "outputs": [
        {
          "internalType": "address",
          "name": "",
          "type": "address"
        },
        {
          "internalType": "uint256",
          "name": "",
          "type": "uint256"
        },
        {
          "internalType": "uint256",
          "name": "",
          "type": "uint256"
        },
        {
          "internalType": "bytes32",
          "name": "",
          "type": "bytes32"
        },
        {
          "internalType": "bool",
          "name": "",
          "type": "bool"
        }
      ],
      "stateMutability": "view",
      "type": "function",
      "constant": true
    },
    {
      "inputs": [],
      "name": "getOpenTrades",
      "outputs": [
        {
          "internalType": "uint256[]",
          "name": "",
          "type": "uint256[]"
        }
      ],
      "stateMutability": "view",
      "type": "function",
      "constant": true
    },
    {
      "inputs": [],
      "name": "totalSupply",
      "outputs": [
        {
          "internalType": "uint256",
          "name": "",
          "type": "uint256"
        }
      ],
      "stateMutability": "view",
      "type": "function",
      "constant": true
    },
    {
      "inputs": [
        {
          "internalType": "uint256",
          "name": "item",
          "type": "uint256"
        }
      ],
      "name": "getTradeIdByItem",
      "outputs": [
        {
          "internalType": "int256",
          "name": "",
          "type": "int256"
        }
      ],
      "stateMutability": "view",
      "type": "function",
      "constant": true
    }
  ],
  "bytecode": "0x608060405260016009553480156200001657600080fd5b506040516200612f3803806200612f83398181016040528101906200003c919062000332565b6040518060400160405280600d81526020017f43525220436172204173736574000000000000000000000000000000000000008152506040518060400160405280600b81526020017f4352524361724173736574000000000000000000000000000000000000000000815250620000c8620000bc6200014c60201b60201c565b6200015460201b60201c565b8160019080519060200190620000e092919062000218565b508060029080519060200190620000f992919062000218565b50505080600760006101000a81548173ffffffffffffffffffffffffffffffffffffffff021916908373ffffffffffffffffffffffffffffffffffffffff160217905550600060088190555050620003c9565b600033905090565b60008060009054906101000a900473ffffffffffffffffffffffffffffffffffffffff169050816000806101000a81548173ffffffffffffffffffffffffffffffffffffffff021916908373ffffffffffffffffffffffffffffffffffffffff1602179055508173ffffffffffffffffffffffffffffffffffffffff168173ffffffffffffffffffffffffffffffffffffffff167f8be0079c531659141344cd1fd0a4f28419497f9722a3daafe3b4186f6b6457e060405160405180910390a35050565b828054620002269062000393565b90600052602060002090601f0160209004810192826200024a576000855562000296565b82601f106200026557805160ff191683800117855562000296565b8280016001018555821562000296579182015b828111156200029557825182559160200191906001019062000278565b5b509050620002a59190620002a9565b5090565b5b80821115620002c4576000816000905550600101620002aa565b5090565b600080fd5b600073ffffffffffffffffffffffffffffffffffffffff82169050919050565b6000620002fa82620002cd565b9050919050565b6200030c81620002ed565b81146200031857600080fd5b50565b6000815190506200032c8162000301565b92915050565b6000602082840312156200034b576200034a620002c8565b5b60006200035b848285016200031b565b91505092915050565b7f4e487b7100000000000000000000000000000000000000000000000000000000600052602260045260246000fd5b60006002820490506001821680620003ac57607f821691505b60208210811415620003c357620003c262000364565b5b50919050565b615d5680620003d96000396000f3fe6080604052600436106101e35760003560e01c80635793f29911610102578063b88d4fde11610095578063f2fde38b11610064578063f2fde38b14610714578063f4edb5c31461073d578063f7746e361461077a578063f8a928d7146107bc576101e3565b8063b88d4fde14610634578063c87b56dd1461065d578063e40de8871461069a578063e985e9c5146106d7576101e3565b8063715018a6116100d1578063715018a61461059e5780638da5cb5b146105b557806395d89b41146105e0578063a22cb4651461060b576101e3565b80635793f299146104d05780636352211e146104f957806363b172611461053657806370a0823114610561576101e3565b806323b872dd1161017a57806336f3cb141161014957806336f3cb141461040057806342842e0e1461042957806344a4e1b8146104525780635164b3b81461048f576101e3565b806323b872dd1461034257806329600e5a1461036b5780632db25e0514610394578063348a91e8146103d5576101e3565b8063098887f6116101b6578063098887f6146102b657806309ec6cc7146102d257806317fb8594146102fb57806318160ddd14610317576101e3565b806301ffc9a7146101e857806306fdde0314610225578063081812fc14610250578063095ea7b31461028d575b600080fd5b3480156101f457600080fd5b5061020f600480360381019061020a919061459c565b6107e5565b60405161021c91906145e4565b60405180910390f35b34801561023157600080fd5b5061023a6108c7565b6040516102479190614698565b60405180910390f35b34801561025c57600080fd5b50610277600480360381019061027291906146f0565b610959565b604051610284919061475e565b60405180910390f35b34801561029957600080fd5b506102b460048036038101906102af91906147a5565b6109de565b005b6102d060048036038101906102cb91906146f0565b610af6565b005b3480156102de57600080fd5b506102f960048036038101906102f491906146f0565b610fa2565b005b610315600480360381019061031091906146f0565b611448565b005b34801561032357600080fd5b5061032c6116a6565b60405161033991906147f4565b60405180910390f35b34801561034e57600080fd5b506103696004803603810190610364919061480f565b6116b0565b005b34801561037757600080fd5b50610392600480360381019061038d919061488e565b611710565b005b3480156103a057600080fd5b506103bb60048036038101906103b691906146f0565b611ab8565b6040516103cc9594939291906148fa565b60405180910390f35b3480156103e157600080fd5b506103ea611bfd565b6040516103f79190614a0b565b60405180910390f35b34801561040c57600080fd5b50610427600480360381019061042291906146f0565b611e5a565b005b34801561043557600080fd5b50610450600480360381019061044b919061480f565b612332565b005b34801561045e57600080fd5b50610479600480360381019061047491906146f0565b612352565b6040516104869190614a46565b60405180910390f35b34801561049b57600080fd5b506104b660048036038101906104b191906146f0565b6124d4565b6040516104c7959493929190614a7d565b60405180910390f35b3480156104dc57600080fd5b506104f760048036038101906104f29190614c3f565b6126aa565b005b34801561050557600080fd5b50610520600480360381019061051b91906146f0565b61288f565b60405161052d919061475e565b60405180910390f35b34801561054257600080fd5b5061054b612941565b6040516105589190614a0b565b60405180910390f35b34801561056d57600080fd5b5061058860048036038101906105839190614cf2565b612b73565b60405161059591906147f4565b60405180910390f35b3480156105aa57600080fd5b506105b3612c2b565b005b3480156105c157600080fd5b506105ca612cb3565b6040516105d7919061475e565b60405180910390f35b3480156105ec57600080fd5b506105f5612cdc565b6040516106029190614698565b60405180910390f35b34801561061757600080fd5b50610632600480360381019061062d9190614d1f565b612d6e565b005b34801561064057600080fd5b5061065b60048036038101906106569190614e00565b612d84565b005b34801561066957600080fd5b50610684600480360381019061067f91906146f0565b612de6565b6040516106919190614698565b60405180910390f35b3480156106a657600080fd5b506106c160048036038101906106bc9190614cf2565b612e8d565b6040516106ce9190614a0b565b60405180910390f35b3480156106e357600080fd5b506106fe60048036038101906106f99190614e83565b61312c565b60405161070b91906145e4565b60405180910390f35b34801561072057600080fd5b5061073b60048036038101906107369190614cf2565b6131c0565b005b34801561074957600080fd5b50610764600480360381019061075f91906146f0565b6132b8565b60405161077191906145e4565b60405180910390f35b34801561078657600080fd5b506107a1600480360381019061079c91906146f0565b6132f8565b6040516107b396959493929190614ec3565b60405180910390f35b3480156107c857600080fd5b506107e360048036038101906107de9190614f32565b61345e565b005b60007f80ac58cd000000000000000000000000000000000000000000000000000000007bffffffffffffffffffffffffffffffffffffffffffffffffffffffff1916827bffffffffffffffffffffffffffffffffffffffffffffffffffffffff191614806108b057507f5b5e139f000000000000000000000000000000000000000000000000000000007bffffffffffffffffffffffffffffffffffffffffffffffffffffffff1916827bffffffffffffffffffffffffffffffffffffffffffffffffffffffff1916145b806108c057506108bf826134ee565b5b9050919050565b6060600180546108d690615000565b80601f016020809104026020016040519081016040528092919081815260200182805461090290615000565b801561094f5780601f106109245761010080835404028352916020019161094f565b820191906000526020600020905b81548152906001019060200180831161093257829003601f168201915b5050505050905090565b600061096482613558565b6109a3576040517f08c379a000000000000000000000000000000000000000000000000000000000815260040161099a906150a4565b60405180910390fd5b6005600083815260200190815260200160002060009054906101000a900473ffffffffffffffffffffffffffffffffffffffff169050919050565b60006109e98261288f565b90508073ffffffffffffffffffffffffffffffffffffffff168373ffffffffffffffffffffffffffffffffffffffff161415610a5a576040517f08c379a0000000000000000000000000000000000000000000000000000000008152600401610a5190615136565b60405180910390fd5b8073ffffffffffffffffffffffffffffffffffffffff16610a796135c4565b73ffffffffffffffffffffffffffffffffffffffff161480610aa85750610aa781610aa26135c4565b61312c565b5b610ae7576040517f08c379a0000000000000000000000000000000000000000000000000000000008152600401610ade906151c8565b60405180910390fd5b610af183836135cc565b505050565b80600d600082815260200190815260200160002060009054906101000a900460ff1615610b2257600080fd5b6000600b60008381526020019081526020016000206040518060e0016040529081600082015481526020016001820160009054906101000a900473ffffffffffffffffffffffffffffffffffffffff1673ffffffffffffffffffffffffffffffffffffffff1673ffffffffffffffffffffffffffffffffffffffff1681526020016002820160009054906101000a900473ffffffffffffffffffffffffffffffffffffffff1673ffffffffffffffffffffffffffffffffffffffff1673ffffffffffffffffffffffffffffffffffffffff1681526020016003820154815260200160048201548152602001600582015481526020016006820160009054906101000a900460ff16151515158152505090507f4f70656e000000000000000000000000000000000000000000000000000000008160a0015114610c6357600080fd5b806020015173ffffffffffffffffffffffffffffffffffffffff16610c8b826060015161288f565b73ffffffffffffffffffffffffffffffffffffffff1614610cab57600080fd5b3073ffffffffffffffffffffffffffffffffffffffff16610ccf8260600151610959565b73ffffffffffffffffffffffffffffffffffffffff1614610cef57600080fd5b6000600b60008581526020019081526020016000206040518060e0016040529081600082015481526020016001820160009054906101000a900473ffffffffffffffffffffffffffffffffffffffff1673ffffffffffffffffffffffffffffffffffffffff1673ffffffffffffffffffffffffffffffffffffffff1681526020016002820160009054906101000a900473ffffffffffffffffffffffffffffffffffffffff1673ffffffffffffffffffffffffffffffffffffffff1673ffffffffffffffffffffffffffffffffffffffff1681526020016003820154815260200160048201548152602001600582015481526020016006820160009054906101000a900460ff161515151581525050905080608001513414610e1057600080fd5b8060c0015115610e1f57600080fd5b6001600d600086815260200190815260200160002060006101000a81548160ff0219169083151502179055506000610e5c82608001516014613685565b90506000610e68612cb3565b73ffffffffffffffffffffffffffffffffffffffff1682604051610e8b90615219565b60006040518083038185875af1925050503d8060008114610ec8576040519150601f19603f3d011682016040523d82523d6000602084013e610ecd565b606091505b505090506000836020015173ffffffffffffffffffffffffffffffffffffffff16838560800151610efe919061525d565b604051610f0a90615219565b60006040518083038185875af1925050503d8060008114610f47576040519150601f19603f3d011682016040523d82523d6000602084013e610f4c565b606091505b505090506000600d600089815260200190815260200160002060006101000a81548160ff02191690831515021790555081610f8657600080fd5b80610f9057600080fd5b610f998761369b565b50505050505050565b80600d600082815260200190815260200160002060009054906101000a900460ff1615610fce57600080fd5b6000600b60008381526020019081526020016000206040518060e0016040529081600082015481526020016001820160009054906101000a900473ffffffffffffffffffffffffffffffffffffffff1673ffffffffffffffffffffffffffffffffffffffff1673ffffffffffffffffffffffffffffffffffffffff1681526020016002820160009054906101000a900473ffffffffffffffffffffffffffffffffffffffff1673ffffffffffffffffffffffffffffffffffffffff1673ffffffffffffffffffffffffffffffffffffffff1681526020016003820154815260200160048201548152602001600582015481526020016006820160009054906101000a900460ff16151515158152505090507f4f70656e000000000000000000000000000000000000000000000000000000008160a001511461110f57600080fd5b806020015173ffffffffffffffffffffffffffffffffffffffff16611137826060015161288f565b73ffffffffffffffffffffffffffffffffffffffff161461115757600080fd5b3073ffffffffffffffffffffffffffffffffffffffff1661117b8260600151610959565b73ffffffffffffffffffffffffffffffffffffffff161461119b57600080fd5b6000600b60008581526020019081526020016000206040518060e0016040529081600082015481526020016001820160009054906101000a900473ffffffffffffffffffffffffffffffffffffffff1673ffffffffffffffffffffffffffffffffffffffff1673ffffffffffffffffffffffffffffffffffffffff1681526020016002820160009054906101000a900473ffffffffffffffffffffffffffffffffffffffff1673ffffffffffffffffffffffffffffffffffffffff1673ffffffffffffffffffffffffffffffffffffffff1681526020016003820154815260200160048201548152602001600582015481526020016006820160009054906101000a900460ff1615151515815250509050806020015173ffffffffffffffffffffffffffffffffffffffff163373ffffffffffffffffffffffffffffffffffffffff16146112e857600080fd5b7f4f70656e000000000000000000000000000000000000000000000000000000008160a001511461131857600080fd5b3373ffffffffffffffffffffffffffffffffffffffff1661133c826060015161288f565b73ffffffffffffffffffffffffffffffffffffffff161461135c57600080fd5b7f43616e63656c6c65640000000000000000000000000000000000000000000000600b600086815260200190815260200160002060050181905550600c6000826060015181526020019081526020016000206000808201600090556001820160006101000a81549073ffffffffffffffffffffffffffffffffffffffff02191690556002820160006101000a81549073ffffffffffffffffffffffffffffffffffffffff02191690556003820160009055600482016000905560058201600090556006820160006101000a81549060ff02191690555050611442600082606001516109de565b50505050565b6000600a60008381526020019081526020016000206040518060c00160405290816000820154815260200160018201805461148290615000565b80601f01602080910402602001604051908101604052809291908181526020018280546114ae90615000565b80156114fb5780601f106114d0576101008083540402835291602001916114fb565b820191906000526020600020905b8154815290600101906020018083116114de57829003601f168201915b505050505081526020016002820160009054906101000a900460ff1660ff1660ff1681526020016002820160019054906101000a900460ff161515151581526020016003820154815260200160048201805461155690615000565b80601f016020809104026020016040519081016040528092919081815260200182805461158290615000565b80156115cf5780601f106115a4576101008083540402835291602001916115cf565b820191906000526020600020905b8154815290600101906020018083116115b257829003601f168201915b50505050508152505090506000816080015114156115ec57600080fd5b8060600151156115fb57600080fd5b611603612cb3565b73ffffffffffffffffffffffffffffffffffffffff166108fc82608001519081150290604051600060405180830381858888f1935050505015801561164c573d6000803e3d6000fd5b50611657338361392e565b6001600a600084815260200190815260200160002060020160016101000a81548160ff0219169083151502179055506000600a6000848152602001908152602001600020600301819055505050565b6000600954905090565b6116c16116bb6135c4565b82613afc565b611700576040517f08c379a00000000000000000000000000000000000000000000000000000000081526004016116f790615303565b60405180910390fd5b61170b838383613bda565b505050565b3373ffffffffffffffffffffffffffffffffffffffff166117308461288f565b73ffffffffffffffffffffffffffffffffffffffff161461175057600080fd5b3073ffffffffffffffffffffffffffffffffffffffff1661177084610959565b73ffffffffffffffffffffffffffffffffffffffff161461179057600080fd5b600073ffffffffffffffffffffffffffffffffffffffff16600c600085815260200190815260200160002060010160009054906101000a900473ffffffffffffffffffffffffffffffffffffffff1673ffffffffffffffffffffffffffffffffffffffff16146117ff57600080fd5b60006008600081548092919061181490615323565b91905055905060006040518060e001604052808381526020013373ffffffffffffffffffffffffffffffffffffffff168152602001600073ffffffffffffffffffffffffffffffffffffffff1681526020018681526020018581526020017f4f70656e000000000000000000000000000000000000000000000000000000008152602001841515815250905080600c60008781526020019081526020016000206000820151816000015560208201518160010160006101000a81548173ffffffffffffffffffffffffffffffffffffffff021916908373ffffffffffffffffffffffffffffffffffffffff16021790555060408201518160020160006101000a81548173ffffffffffffffffffffffffffffffffffffffff021916908373ffffffffffffffffffffffffffffffffffffffff160217905550606082015181600301556080820151816004015560a0820151816005015560c08201518160060160006101000a81548160ff02191690831515021790555090505080600b60008481526020019081526020016000206000820151816000015560208201518160010160006101000a81548173ffffffffffffffffffffffffffffffffffffffff021916908373ffffffffffffffffffffffffffffffffffffffff16021790555060408201518160020160006101000a81548173ffffffffffffffffffffffffffffffffffffffff021916908373ffffffffffffffffffffffffffffffffffffffff160217905550606082015181600301556080820151816004015560a0820151816005015560c08201518160060160006101000a81548160ff0219169083151502179055509050507f4d128b73dec2d69780103de3826e7ecc104faece313ac950c8541c616e2aef4b82604051611aa991906147f4565b60405180910390a15050505050565b600080600080600080600b60008881526020019081526020016000206040518060e0016040529081600082015481526020016001820160009054906101000a900473ffffffffffffffffffffffffffffffffffffffff1673ffffffffffffffffffffffffffffffffffffffff1673ffffffffffffffffffffffffffffffffffffffff1681526020016002820160009054906101000a900473ffffffffffffffffffffffffffffffffffffffff1673ffffffffffffffffffffffffffffffffffffffff1673ffffffffffffffffffffffffffffffffffffffff1681526020016003820154815260200160048201548152602001600582015481526020016006820160009054906101000a900460ff16151515158152505090508060200151816060015182608001518360a001518460c00151955095509550955095505091939590929450565b606060006001600954611c10919061525d565b67ffffffffffffffff811115611c2957611c28614ae8565b5b604051908082528060200260200182016040528015611c575781602001602082028036833780820191505090505b509050600080600190505b600954811015611e48576000600a60008381526020019081526020016000206040518060c001604052908160008201548152602001600182018054611ca690615000565b80601f0160208091040260200160405190810160405280929190818152602001828054611cd290615000565b8015611d1f5780601f10611cf457610100808354040283529160200191611d1f565b820191906000526020600020905b815481529060010190602001808311611d0257829003601f168201915b505050505081526020016002820160009054906101000a900460ff1660ff1660ff1681526020016002820160019054906101000a900460ff1615151515815260200160038201548152602001600482018054611d7a90615000565b80601f0160208091040260200160405190810160405280929190818152602001828054611da690615000565b8015611df35780601f10611dc857610100808354040283529160200191611df3565b820191906000526020600020905b815481529060010190602001808311611dd657829003601f168201915b50505050508152505090508060600151611e345781848480611e1490615323565b955081518110611e2757611e2661536c565b5b6020026020010181815250505b508080611e4090615323565b915050611c62565b50611e538282613e36565b9250505090565b80600d600082815260200190815260200160002060009054906101000a900460ff1615611e8657600080fd5b6000600b60008381526020019081526020016000206040518060e0016040529081600082015481526020016001820160009054906101000a900473ffffffffffffffffffffffffffffffffffffffff1673ffffffffffffffffffffffffffffffffffffffff1673ffffffffffffffffffffffffffffffffffffffff1681526020016002820160009054906101000a900473ffffffffffffffffffffffffffffffffffffffff1673ffffffffffffffffffffffffffffffffffffffff1673ffffffffffffffffffffffffffffffffffffffff1681526020016003820154815260200160048201548152602001600582015481526020016006820160009054906101000a900460ff16151515158152505090507f4f70656e000000000000000000000000000000000000000000000000000000008160a0015114611fc757600080fd5b806020015173ffffffffffffffffffffffffffffffffffffffff16611fef826060015161288f565b73ffffffffffffffffffffffffffffffffffffffff161461200f57600080fd5b3073ffffffffffffffffffffffffffffffffffffffff166120338260600151610959565b73ffffffffffffffffffffffffffffffffffffffff161461205357600080fd5b6000600b60008581526020019081526020016000206040518060e0016040529081600082015481526020016001820160009054906101000a900473ffffffffffffffffffffffffffffffffffffffff1673ffffffffffffffffffffffffffffffffffffffff1673ffffffffffffffffffffffffffffffffffffffff1681526020016002820160009054906101000a900473ffffffffffffffffffffffffffffffffffffffff1673ffffffffffffffffffffffffffffffffffffffff1673ffffffffffffffffffffffffffffffffffffffff1681526020016003820154815260200160048201548152602001600582015481526020016006820160009054906101000a900460ff16151515158152505090508060c0015161217257600080fd5b8060800151600760009054906101000a900473ffffffffffffffffffffffffffffffffffffffff1673ffffffffffffffffffffffffffffffffffffffff1663dd62ed3e33306040518363ffffffff1660e01b81526004016121d492919061539b565b602060405180830381865afa1580156121f1573d6000803e3d6000fd5b505050506040513d601f19601f8201168201806040525081019061221591906153d9565b101561222057600080fd5b6001600d600086815260200190815260200160002060006101000a81548160ff021916908315150217905550600760009054906101000a900473ffffffffffffffffffffffffffffffffffffffff1673ffffffffffffffffffffffffffffffffffffffff166323b872dd33836020015184608001516040518463ffffffff1660e01b81526004016122b393929190615406565b6020604051808303816000875af11580156122d2573d6000803e3d6000fd5b505050506040513d601f19601f820116820180604052508101906122f69190615452565b506000600d600086815260200190815260200160002060006101000a81548160ff02191690831515021790555061232c8461369b565b50505050565b61234d83838360405180602001604052806000815250612d84565b505050565b600080600c60008481526020019081526020016000206040518060e0016040529081600082015481526020016001820160009054906101000a900473ffffffffffffffffffffffffffffffffffffffff1673ffffffffffffffffffffffffffffffffffffffff1673ffffffffffffffffffffffffffffffffffffffff1681526020016002820160009054906101000a900473ffffffffffffffffffffffffffffffffffffffff1673ffffffffffffffffffffffffffffffffffffffff1673ffffffffffffffffffffffffffffffffffffffff1681526020016003820154815260200160048201548152602001600582015481526020016006820160009054906101000a900460ff1615151515815250509050600073ffffffffffffffffffffffffffffffffffffffff16816020015173ffffffffffffffffffffffffffffffffffffffff1614156124c6577fffffffffffffffffffffffffffffffffffffffffffffffffffffffffffffffff9150506124cf565b80600001519150505b919050565b60606000806000606060095486106124eb57600080fd5b6000600a60008881526020019081526020016000206040518060c00160405290816000820154815260200160018201805461252590615000565b80601f016020809104026020016040519081016040528092919081815260200182805461255190615000565b801561259e5780601f106125735761010080835404028352916020019161259e565b820191906000526020600020905b81548152906001019060200180831161258157829003601f168201915b505050505081526020016002820160009054906101000a900460ff1660ff1660ff1681526020016002820160019054906101000a900460ff16151515158152602001600382015481526020016004820180546125f990615000565b80601f016020809104026020016040519081016040528092919081815260200182805461262590615000565b80156126725780601f1061264757610100808354040283529160200191612672565b820191906000526020600020905b81548152906001019060200180831161265557829003601f168201915b505050505081525050905080602001518160400151826080015183606001518460a00151955095509550955095505091939590929450565b6126b26135c4565b73ffffffffffffffffffffffffffffffffffffffff166126d0612cb3565b73ffffffffffffffffffffffffffffffffffffffff1614612726576040517f08c379a000000000000000000000000000000000000000000000000000000000815260040161271d906154cb565b60405180910390fd5b60006009600081548092919061273b90615323565b9190505590506040518060c001604052808281526020018781526020018660ff16815260200160001515815260200185815260200184815250600a60008381526020019081526020016000206000820151816000015560208201518160010190805190602001906127ad92919061448d565b5060408201518160020160006101000a81548160ff021916908360ff16021790555060608201518160020160016101000a81548160ff0219169083151502179055506080820151816003015560a082015181600401908051906020019061281592919061448d565b50905050600073ffffffffffffffffffffffffffffffffffffffff168273ffffffffffffffffffffffffffffffffffffffff161461288757612857828261392e565b6001600a600083815260200190815260200160002060020160016101000a81548160ff0219169083151502179055505b505050505050565b6000806003600084815260200190815260200160002060009054906101000a900473ffffffffffffffffffffffffffffffffffffffff169050600073ffffffffffffffffffffffffffffffffffffffff168173ffffffffffffffffffffffffffffffffffffffff161415612938576040517f08c379a000000000000000000000000000000000000000000000000000000000815260040161292f9061555d565b60405180910390fd5b80915050919050565b606060008060085467ffffffffffffffff81111561296257612961614ae8565b5b6040519080825280602002602001820160405280156129905781602001602082028036833780820191505090505b50905060005b600854811015612b61576000600b60008381526020019081526020016000206040518060e0016040529081600082015481526020016001820160009054906101000a900473ffffffffffffffffffffffffffffffffffffffff1673ffffffffffffffffffffffffffffffffffffffff1673ffffffffffffffffffffffffffffffffffffffff1681526020016002820160009054906101000a900473ffffffffffffffffffffffffffffffffffffffff1673ffffffffffffffffffffffffffffffffffffffff1673ffffffffffffffffffffffffffffffffffffffff1681526020016003820154815260200160048201548152602001600582015481526020016006820160009054906101000a900460ff16151515158152505090507f4f70656e000000000000000000000000000000000000000000000000000000008160a00151148015612b1b57503073ffffffffffffffffffffffffffffffffffffffff16612b038260600151610959565b73ffffffffffffffffffffffffffffffffffffffff16145b15612b4d5781838580612b2d90615323565b965081518110612b4057612b3f61536c565b5b6020026020010181815250505b508080612b5990615323565b915050612996565b50612b6c8183613e36565b9250505090565b60008073ffffffffffffffffffffffffffffffffffffffff168273ffffffffffffffffffffffffffffffffffffffff161415612be4576040517f08c379a0000000000000000000000000000000000000000000000000000000008152600401612bdb906155ef565b60405180910390fd5b600460008373ffffffffffffffffffffffffffffffffffffffff1673ffffffffffffffffffffffffffffffffffffffff168152602001908152602001600020549050919050565b612c336135c4565b73ffffffffffffffffffffffffffffffffffffffff16612c51612cb3565b73ffffffffffffffffffffffffffffffffffffffff1614612ca7576040517f08c379a0000000000000000000000000000000000000000000000000000000008152600401612c9e906154cb565b60405180910390fd5b612cb16000613ee8565b565b60008060009054906101000a900473ffffffffffffffffffffffffffffffffffffffff16905090565b606060028054612ceb90615000565b80601f0160208091040260200160405190810160405280929190818152602001828054612d1790615000565b8015612d645780601f10612d3957610100808354040283529160200191612d64565b820191906000526020600020905b815481529060010190602001808311612d4757829003601f168201915b5050505050905090565b612d80612d796135c4565b8383613fac565b5050565b612d95612d8f6135c4565b83613afc565b612dd4576040517f08c379a0000000000000000000000000000000000000000000000000000000008152600401612dcb90615303565b60405180910390fd5b612de084848484614119565b50505050565b6060612df182613558565b612e30576040517f08c379a0000000000000000000000000000000000000000000000000000000008152600401612e2790615681565b60405180910390fd5b6000612e3a614175565b90506000815111612e5a5760405180602001604052806000815250612e85565b80612e648461418c565b604051602001612e759291906156dd565b6040516020818303038152906040525b915050919050565b60606000806001600954612ea1919061525d565b67ffffffffffffffff811115612eba57612eb9614ae8565b5b604051908082528060200260200182016040528015612ee85781602001602082028036833780820191505090505b5090506000600190505b600954811015613118576000600a60008381526020019081526020016000206040518060c001604052908160008201548152602001600182018054612f3690615000565b80601f0160208091040260200160405190810160405280929190818152602001828054612f6290615000565b8015612faf5780601f10612f8457610100808354040283529160200191612faf565b820191906000526020600020905b815481529060010190602001808311612f9257829003601f168201915b505050505081526020016002820160009054906101000a900460ff1660ff1660ff1681526020016002820160019054906101000a900460ff161515151581526020016003820154815260200160048201805461300a90615000565b80601f016020809104026020016040519081016040528092919081815260200182805461303690615000565b80156130835780601f1061305857610100808354040283529160200191613083565b820191906000526020600020905b81548152906001019060200180831161306657829003601f168201915b5050505050815250509050806060015180156130d257508573ffffffffffffffffffffffffffffffffffffffff166130ba8361288f565b73ffffffffffffffffffffffffffffffffffffffff16145b1561310457818385806130e490615323565b9650815181106130f7576130f661536c565b5b6020026020010181815250505b50808061311090615323565b915050612ef2565b506131238183613e36565b92505050919050565b6000600660008473ffffffffffffffffffffffffffffffffffffffff1673ffffffffffffffffffffffffffffffffffffffff16815260200190815260200160002060008373ffffffffffffffffffffffffffffffffffffffff1673ffffffffffffffffffffffffffffffffffffffff16815260200190815260200160002060009054906101000a900460ff16905092915050565b6131c86135c4565b73ffffffffffffffffffffffffffffffffffffffff166131e6612cb3565b73ffffffffffffffffffffffffffffffffffffffff161461323c576040517f08c379a0000000000000000000000000000000000000000000000000000000008152600401613233906154cb565b60405180910390fd5b600073ffffffffffffffffffffffffffffffffffffffff168173ffffffffffffffffffffffffffffffffffffffff1614156132ac576040517f08c379a00000000000000000000000000000000000000000000000000000000081526004016132a390615773565b60405180910390fd5b6132b581613ee8565b50565b60003073ffffffffffffffffffffffffffffffffffffffff166132da83610959565b73ffffffffffffffffffffffffffffffffffffffff16149050919050565b600a60205280600052604060002060009150905080600001549080600101805461332190615000565b80601f016020809104026020016040519081016040528092919081815260200182805461334d90615000565b801561339a5780601f1061336f5761010080835404028352916020019161339a565b820191906000526020600020905b81548152906001019060200180831161337d57829003601f168201915b5050505050908060020160009054906101000a900460ff16908060020160019054906101000a900460ff16908060030154908060040180546133db90615000565b80601f016020809104026020016040519081016040528092919081815260200182805461340790615000565b80156134545780601f1061342957610100808354040283529160200191613454565b820191906000526020600020905b81548152906001019060200180831161343757829003601f168201915b5050505050905086565b6134666135c4565b73ffffffffffffffffffffffffffffffffffffffff16613484612cb3565b73ffffffffffffffffffffffffffffffffffffffff16146134da576040517f08c379a00000000000000000000000000000000000000000000000000000000081526004016134d1906154cb565b60405180910390fd5b6134e88484848460006126aa565b50505050565b60007f01ffc9a7000000000000000000000000000000000000000000000000000000007bffffffffffffffffffffffffffffffffffffffffffffffffffffffff1916827bffffffffffffffffffffffffffffffffffffffffffffffffffffffff1916149050919050565b60008073ffffffffffffffffffffffffffffffffffffffff166003600084815260200190815260200160002060009054906101000a900473ffffffffffffffffffffffffffffffffffffffff1673ffffffffffffffffffffffffffffffffffffffff1614159050919050565b600033905090565b816005600083815260200190815260200160002060006101000a81548173ffffffffffffffffffffffffffffffffffffffff021916908373ffffffffffffffffffffffffffffffffffffffff160217905550808273ffffffffffffffffffffffffffffffffffffffff1661363f8361288f565b73ffffffffffffffffffffffffffffffffffffffff167f8c5be1e5ebec7d5bd14f71427d1e84f3dd0314c0f7b2291e5b200ac8c7c3b92560405160405180910390a45050565b6000818361369391906157c2565b905092915050565b6000600b60008381526020019081526020016000206040518060e0016040529081600082015481526020016001820160009054906101000a900473ffffffffffffffffffffffffffffffffffffffff1673ffffffffffffffffffffffffffffffffffffffff1673ffffffffffffffffffffffffffffffffffffffff1681526020016002820160009054906101000a900473ffffffffffffffffffffffffffffffffffffffff1673ffffffffffffffffffffffffffffffffffffffff1673ffffffffffffffffffffffffffffffffffffffff1681526020016003820154815260200160048201548152602001600582015481526020016006820160009054906101000a900460ff16151515158152505090507f4578656375746564000000000000000000000000000000000000000000000000600b60008481526020019081526020016000206005018190555033600b600084815260200190815260200160002060020160006101000a81548173ffffffffffffffffffffffffffffffffffffffff021916908373ffffffffffffffffffffffffffffffffffffffff16021790555061384f81602001513383606001516116b0565b600c6000826060015181526020019081526020016000206000808201600090556001820160006101000a81549073ffffffffffffffffffffffffffffffffffffffff02191690556002820160006101000a81549073ffffffffffffffffffffffffffffffffffffffff02191690556003820160009055600482016000905560058201600090556006820160006101000a81549060ff021916905550507fd852ae75225875ed49b4a2e5972beeb20bd3271cec78f9e2e4d9d359ac95dd6b82826060015142604051613922939291906157f3565b60405180910390a15050565b600073ffffffffffffffffffffffffffffffffffffffff168273ffffffffffffffffffffffffffffffffffffffff16141561399e576040517f08c379a000000000000000000000000000000000000000000000000000000000815260040161399590615876565b60405180910390fd5b6139a781613558565b156139e7576040517f08c379a00000000000000000000000000000000000000000000000000000000081526004016139de906158e2565b60405180910390fd5b6139f3600083836142ed565b6001600460008473ffffffffffffffffffffffffffffffffffffffff1673ffffffffffffffffffffffffffffffffffffffff1681526020019081526020016000206000828254613a439190615902565b92505081905550816003600083815260200190815260200160002060006101000a81548173ffffffffffffffffffffffffffffffffffffffff021916908373ffffffffffffffffffffffffffffffffffffffff160217905550808273ffffffffffffffffffffffffffffffffffffffff16600073ffffffffffffffffffffffffffffffffffffffff167fddf252ad1be2c89b69c2b068fc378daa952ba7f163c4a11628f55a4df523b3ef60405160405180910390a45050565b6000613b0782613558565b613b46576040517f08c379a0000000000000000000000000000000000000000000000000000000008152600401613b3d906159ca565b60405180910390fd5b6000613b518361288f565b90508073ffffffffffffffffffffffffffffffffffffffff168473ffffffffffffffffffffffffffffffffffffffff161480613bc057508373ffffffffffffffffffffffffffffffffffffffff16613ba884610959565b73ffffffffffffffffffffffffffffffffffffffff16145b80613bd15750613bd0818561312c565b5b91505092915050565b8273ffffffffffffffffffffffffffffffffffffffff16613bfa8261288f565b73ffffffffffffffffffffffffffffffffffffffff1614613c50576040517f08c379a0000000000000000000000000000000000000000000000000000000008152600401613c4790615a5c565b60405180910390fd5b600073ffffffffffffffffffffffffffffffffffffffff168273ffffffffffffffffffffffffffffffffffffffff161415613cc0576040517f08c379a0000000000000000000000000000000000000000000000000000000008152600401613cb790615aee565b60405180910390fd5b613ccb8383836142ed565b613cd66000826135cc565b6001600460008573ffffffffffffffffffffffffffffffffffffffff1673ffffffffffffffffffffffffffffffffffffffff1681526020019081526020016000206000828254613d26919061525d565b925050819055506001600460008473ffffffffffffffffffffffffffffffffffffffff1673ffffffffffffffffffffffffffffffffffffffff1681526020019081526020016000206000828254613d7d9190615902565b92505081905550816003600083815260200190815260200160002060006101000a81548173ffffffffffffffffffffffffffffffffffffffff021916908373ffffffffffffffffffffffffffffffffffffffff160217905550808273ffffffffffffffffffffffffffffffffffffffff168473ffffffffffffffffffffffffffffffffffffffff167fddf252ad1be2c89b69c2b068fc378daa952ba7f163c4a11628f55a4df523b3ef60405160405180910390a4505050565b606060008267ffffffffffffffff811115613e5457613e53614ae8565b5b604051908082528060200260200182016040528015613e825781602001602082028036833780820191505090505b50905060005b83811015613edd57848181518110613ea357613ea261536c565b5b6020026020010151828281518110613ebe57613ebd61536c565b5b6020026020010181815250508080613ed590615323565b915050613e88565b508091505092915050565b60008060009054906101000a900473ffffffffffffffffffffffffffffffffffffffff169050816000806101000a81548173ffffffffffffffffffffffffffffffffffffffff021916908373ffffffffffffffffffffffffffffffffffffffff1602179055508173ffffffffffffffffffffffffffffffffffffffff168173ffffffffffffffffffffffffffffffffffffffff167f8be0079c531659141344cd1fd0a4f28419497f9722a3daafe3b4186f6b6457e060405160405180910390a35050565b8173ffffffffffffffffffffffffffffffffffffffff168373ffffffffffffffffffffffffffffffffffffffff16141561401b576040517f08c379a000000000000000000000000000000000000000000000000000000000815260040161401290615b5a565b60405180910390fd5b80600660008573ffffffffffffffffffffffffffffffffffffffff1673ffffffffffffffffffffffffffffffffffffffff16815260200190815260200160002060008473ffffffffffffffffffffffffffffffffffffffff1673ffffffffffffffffffffffffffffffffffffffff16815260200190815260200160002060006101000a81548160ff0219169083151502179055508173ffffffffffffffffffffffffffffffffffffffff168373ffffffffffffffffffffffffffffffffffffffff167f17307eab39ab6107e8899845ad3d59bd9653f200f220920489ca2b5937696c318360405161410c91906145e4565b60405180910390a3505050565b614124848484613bda565b614130848484846142f2565b61416f576040517f08c379a000000000000000000000000000000000000000000000000000000000815260040161416690615bec565b60405180910390fd5b50505050565b606060405180602001604052806000815250905090565b606060008214156141d4576040518060400160405280600181526020017f300000000000000000000000000000000000000000000000000000000000000081525090506142e8565b600082905060005b600082146142065780806141ef90615323565b915050600a826141ff91906157c2565b91506141dc565b60008167ffffffffffffffff81111561422257614221614ae8565b5b6040519080825280601f01601f1916602001820160405280156142545781602001600182028036833780820191505090505b5090505b600085146142e15760018261426d919061525d565b9150600a8561427c9190615c0c565b60306142889190615902565b60f81b81838151811061429e5761429d61536c565b5b60200101907effffffffffffffffffffffffffffffffffffffffffffffffffffffffffffff1916908160001a905350600a856142da91906157c2565b9450614258565b8093505050505b919050565b505050565b60006143138473ffffffffffffffffffffffffffffffffffffffff1661447a565b1561446d578373ffffffffffffffffffffffffffffffffffffffff1663150b7a0261433c6135c4565b8786866040518563ffffffff1660e01b815260040161435e9493929190615c92565b6020604051808303816000875af192505050801561439a57506040513d601f19601f820116820180604052508101906143979190615cf3565b60015b61441d573d80600081146143ca576040519150601f19603f3d011682016040523d82523d6000602084013e6143cf565b606091505b50600081511415614415576040517f08c379a000000000000000000000000000000000000000000000000000000000815260040161440c90615bec565b60405180910390fd5b805181602001fd5b63150b7a0260e01b7bffffffffffffffffffffffffffffffffffffffffffffffffffffffff1916817bffffffffffffffffffffffffffffffffffffffffffffffffffffffff191614915050614472565b600190505b949350505050565b600080823b905060008111915050919050565b82805461449990615000565b90600052602060002090601f0160209004810192826144bb5760008555614502565b82601f106144d457805160ff1916838001178555614502565b82800160010185558215614502579182015b828111156145015782518255916020019190600101906144e6565b5b50905061450f9190614513565b5090565b5b8082111561452c576000816000905550600101614514565b5090565b6000604051905090565b600080fd5b600080fd5b60007fffffffff0000000000000000000000000000000000000000000000000000000082169050919050565b61457981614544565b811461458457600080fd5b50565b60008135905061459681614570565b92915050565b6000602082840312156145b2576145b161453a565b5b60006145c084828501614587565b91505092915050565b60008115159050919050565b6145de816145c9565b82525050565b60006020820190506145f960008301846145d5565b92915050565b600081519050919050565b600082825260208201905092915050565b60005b8381101561463957808201518184015260208101905061461e565b83811115614648576000848401525b50505050565b6000601f19601f8301169050919050565b600061466a826145ff565b614674818561460a565b935061468481856020860161461b565b61468d8161464e565b840191505092915050565b600060208201905081810360008301526146b2818461465f565b905092915050565b6000819050919050565b6146cd816146ba565b81146146d857600080fd5b50565b6000813590506146ea816146c4565b92915050565b6000602082840312156147065761470561453a565b5b6000614714848285016146db565b91505092915050565b600073ffffffffffffffffffffffffffffffffffffffff82169050919050565b60006147488261471d565b9050919050565b6147588161473d565b82525050565b6000602082019050614773600083018461474f565b92915050565b6147828161473d565b811461478d57600080fd5b50565b60008135905061479f81614779565b92915050565b600080604083850312156147bc576147bb61453a565b5b60006147ca85828601614790565b92505060206147db858286016146db565b9150509250929050565b6147ee816146ba565b82525050565b600060208201905061480960008301846147e5565b92915050565b6000806000606084860312156148285761482761453a565b5b600061483686828701614790565b935050602061484786828701614790565b9250506040614858868287016146db565b9150509250925092565b61486b816145c9565b811461487657600080fd5b50565b60008135905061488881614862565b92915050565b6000806000606084860312156148a7576148a661453a565b5b60006148b5868287016146db565b93505060206148c6868287016146db565b92505060406148d786828701614879565b9150509250925092565b6000819050919050565b6148f4816148e1565b82525050565b600060a08201905061490f600083018861474f565b61491c60208301876147e5565b61492960408301866147e5565b61493660608301856148eb565b61494360808301846145d5565b9695505050505050565b600081519050919050565b600082825260208201905092915050565b6000819050602082019050919050565b614982816146ba565b82525050565b60006149948383614979565b60208301905092915050565b6000602082019050919050565b60006149b88261494d565b6149c28185614958565b93506149cd83614969565b8060005b838110156149fe5781516149e58882614988565b97506149f0836149a0565b9250506001810190506149d1565b5085935050505092915050565b60006020820190508181036000830152614a2581846149ad565b905092915050565b6000819050919050565b614a4081614a2d565b82525050565b6000602082019050614a5b6000830184614a37565b92915050565b600060ff82169050919050565b614a7781614a61565b82525050565b600060a0820190508181036000830152614a97818861465f565b9050614aa66020830187614a6e565b614ab360408301866147e5565b614ac060608301856145d5565b8181036080830152614ad2818461465f565b90509695505050505050565b600080fd5b600080fd5b7f4e487b7100000000000000000000000000000000000000000000000000000000600052604160045260246000fd5b614b208261464e565b810181811067ffffffffffffffff82111715614b3f57614b3e614ae8565b5b80604052505050565b6000614b52614530565b9050614b5e8282614b17565b919050565b600067ffffffffffffffff821115614b7e57614b7d614ae8565b5b614b878261464e565b9050602081019050919050565b82818337600083830152505050565b6000614bb6614bb184614b63565b614b48565b905082815260208101848484011115614bd257614bd1614ae3565b5b614bdd848285614b94565b509392505050565b600082601f830112614bfa57614bf9614ade565b5b8135614c0a848260208601614ba3565b91505092915050565b614c1c81614a61565b8114614c2757600080fd5b50565b600081359050614c3981614c13565b92915050565b600080600080600060a08688031215614c5b57614c5a61453a565b5b600086013567ffffffffffffffff811115614c7957614c7861453f565b5b614c8588828901614be5565b9550506020614c9688828901614c2a565b9450506040614ca7888289016146db565b935050606086013567ffffffffffffffff811115614cc857614cc761453f565b5b614cd488828901614be5565b9250506080614ce588828901614790565b9150509295509295909350565b600060208284031215614d0857614d0761453a565b5b6000614d1684828501614790565b91505092915050565b60008060408385031215614d3657614d3561453a565b5b6000614d4485828601614790565b9250506020614d5585828601614879565b9150509250929050565b600067ffffffffffffffff821115614d7a57614d79614ae8565b5b614d838261464e565b9050602081019050919050565b6000614da3614d9e84614d5f565b614b48565b905082815260208101848484011115614dbf57614dbe614ae3565b5b614dca848285614b94565b509392505050565b600082601f830112614de757614de6614ade565b5b8135614df7848260208601614d90565b91505092915050565b60008060008060808587031215614e1a57614e1961453a565b5b6000614e2887828801614790565b9450506020614e3987828801614790565b9350506040614e4a878288016146db565b925050606085013567ffffffffffffffff811115614e6b57614e6a61453f565b5b614e7787828801614dd2565b91505092959194509250565b60008060408385031215614e9a57614e9961453a565b5b6000614ea885828601614790565b9250506020614eb985828601614790565b9150509250929050565b600060c082019050614ed860008301896147e5565b8181036020830152614eea818861465f565b9050614ef96040830187614a6e565b614f0660608301866145d5565b614f1360808301856147e5565b81810360a0830152614f25818461465f565b9050979650505050505050565b60008060008060808587031215614f4c57614f4b61453a565b5b600085013567ffffffffffffffff811115614f6a57614f6961453f565b5b614f7687828801614be5565b9450506020614f8787828801614c2a565b9350506040614f98878288016146db565b925050606085013567ffffffffffffffff811115614fb957614fb861453f565b5b614fc587828801614be5565b91505092959194509250565b7f4e487b7100000000000000000000000000000000000000000000000000000000600052602260045260246000fd5b6000600282049050600182168061501857607f821691505b6020821081141561502c5761502b614fd1565b5b50919050565b7f4552433732313a20617070726f76656420717565727920666f72206e6f6e657860008201527f697374656e7420746f6b656e0000000000000000000000000000000000000000602082015250565b600061508e602c8361460a565b915061509982615032565b604082019050919050565b600060208201905081810360008301526150bd81615081565b9050919050565b7f4552433732313a20617070726f76616c20746f2063757272656e74206f776e6560008201527f7200000000000000000000000000000000000000000000000000000000000000602082015250565b600061512060218361460a565b915061512b826150c4565b604082019050919050565b6000602082019050818103600083015261514f81615113565b9050919050565b7f4552433732313a20617070726f76652063616c6c6572206973206e6f74206f7760008201527f6e6572206e6f7220617070726f76656420666f7220616c6c0000000000000000602082015250565b60006151b260388361460a565b91506151bd82615156565b604082019050919050565b600060208201905081810360008301526151e1816151a5565b9050919050565b600081905092915050565b50565b60006152036000836151e8565b915061520e826151f3565b600082019050919050565b6000615224826151f6565b9150819050919050565b7f4e487b7100000000000000000000000000000000000000000000000000000000600052601160045260246000fd5b6000615268826146ba565b9150615273836146ba565b9250828210156152865761528561522e565b5b828203905092915050565b7f4552433732313a207472616e736665722063616c6c6572206973206e6f74206f60008201527f776e6572206e6f7220617070726f766564000000000000000000000000000000602082015250565b60006152ed60318361460a565b91506152f882615291565b604082019050919050565b6000602082019050818103600083015261531c816152e0565b9050919050565b600061532e826146ba565b91507fffffffffffffffffffffffffffffffffffffffffffffffffffffffffffffffff8214156153615761536061522e565b5b600182019050919050565b7f4e487b7100000000000000000000000000000000000000000000000000000000600052603260045260246000fd5b60006040820190506153b0600083018561474f565b6153bd602083018461474f565b9392505050565b6000815190506153d3816146c4565b92915050565b6000602082840312156153ef576153ee61453a565b5b60006153fd848285016153c4565b91505092915050565b600060608201905061541b600083018661474f565b615428602083018561474f565b61543560408301846147e5565b949350505050565b60008151905061544c81614862565b92915050565b6000602082840312156154685761546761453a565b5b60006154768482850161543d565b91505092915050565b7f4f776e61626c653a2063616c6c6572206973206e6f7420746865206f776e6572600082015250565b60006154b560208361460a565b91506154c08261547f565b602082019050919050565b600060208201905081810360008301526154e4816154a8565b9050919050565b7f4552433732313a206f776e657220717565727920666f72206e6f6e657869737460008201527f656e7420746f6b656e0000000000000000000000000000000000000000000000602082015250565b600061554760298361460a565b9150615552826154eb565b604082019050919050565b600060208201905081810360008301526155768161553a565b9050919050565b7f4552433732313a2062616c616e636520717565727920666f7220746865207a6560008201527f726f206164647265737300000000000000000000000000000000000000000000602082015250565b60006155d9602a8361460a565b91506155e48261557d565b604082019050919050565b60006020820190508181036000830152615608816155cc565b9050919050565b7f4552433732314d657461646174613a2055524920717565727920666f72206e6f60008201527f6e6578697374656e7420746f6b656e0000000000000000000000000000000000602082015250565b600061566b602f8361460a565b91506156768261560f565b604082019050919050565b6000602082019050818103600083015261569a8161565e565b9050919050565b600081905092915050565b60006156b7826145ff565b6156c181856156a1565b93506156d181856020860161461b565b80840191505092915050565b60006156e982856156ac565b91506156f582846156ac565b91508190509392505050565b7f4f776e61626c653a206e6577206f776e657220697320746865207a65726f206160008201527f6464726573730000000000000000000000000000000000000000000000000000602082015250565b600061575d60268361460a565b915061576882615701565b604082019050919050565b6000602082019050818103600083015261578c81615750565b9050919050565b7f4e487b7100000000000000000000000000000000000000000000000000000000600052601260045260246000fd5b60006157cd826146ba565b91506157d8836146ba565b9250826157e8576157e7615793565b5b828204905092915050565b600060608201905061580860008301866147e5565b61581560208301856147e5565b61582260408301846147e5565b949350505050565b7f4552433732313a206d696e7420746f20746865207a65726f2061646472657373600082015250565b600061586060208361460a565b915061586b8261582a565b602082019050919050565b6000602082019050818103600083015261588f81615853565b9050919050565b7f4552433732313a20746f6b656e20616c7265616479206d696e74656400000000600082015250565b60006158cc601c8361460a565b91506158d782615896565b602082019050919050565b600060208201905081810360008301526158fb816158bf565b9050919050565b600061590d826146ba565b9150615918836146ba565b9250827fffffffffffffffffffffffffffffffffffffffffffffffffffffffffffffffff0382111561594d5761594c61522e565b5b828201905092915050565b7f4552433732313a206f70657261746f7220717565727920666f72206e6f6e657860008201527f697374656e7420746f6b656e0000000000000000000000000000000000000000602082015250565b60006159b4602c8361460a565b91506159bf82615958565b604082019050919050565b600060208201905081810360008301526159e3816159a7565b9050919050565b7f4552433732313a207472616e73666572206f6620746f6b656e2074686174206960008201527f73206e6f74206f776e0000000000000000000000000000000000000000000000602082015250565b6000615a4660298361460a565b9150615a51826159ea565b604082019050919050565b60006020820190508181036000830152615a7581615a39565b9050919050565b7f4552433732313a207472616e7366657220746f20746865207a65726f2061646460008201527f7265737300000000000000000000000000000000000000000000000000000000602082015250565b6000615ad860248361460a565b9150615ae382615a7c565b604082019050919050565b60006020820190508181036000830152615b0781615acb565b9050919050565b7f4552433732313a20617070726f766520746f2063616c6c657200000000000000600082015250565b6000615b4460198361460a565b9150615b4f82615b0e565b602082019050919050565b60006020820190508181036000830152615b7381615b37565b9050919050565b7f4552433732313a207472616e7366657220746f206e6f6e20455243373231526560008201527f63656976657220696d706c656d656e7465720000000000000000000000000000602082015250565b6000615bd660328361460a565b9150615be182615b7a565b604082019050919050565b60006020820190508181036000830152615c0581615bc9565b9050919050565b6000615c17826146ba565b9150615c22836146ba565b925082615c3257615c31615793565b5b828206905092915050565b600081519050919050565b600082825260208201905092915050565b6000615c6482615c3d565b615c6e8185615c48565b9350615c7e81856020860161461b565b615c878161464e565b840191505092915050565b6000608082019050615ca7600083018761474f565b615cb4602083018661474f565b615cc160408301856147e5565b8181036060830152615cd38184615c59565b905095945050505050565b600081519050615ced81614570565b92915050565b600060208284031215615d0957615d0861453a565b5b6000615d1784828501615cde565b9150509291505056fea26469706673582212201c94e0e89769b93365e23cdcfe57dfa4d8a7118d736c81d11e58c40b027cf14064736f6c634300080a0033",
  "immutableReferences": {},
  "source": "//SPDX-License-Identifier: MIT\r\n\r\npragma solidity >= 0.8.10;\r\n\r\nimport \"@openzeppelin/contracts/token/ERC721/ERC721.sol\";\r\nimport \"@openzeppelin/contracts/access/Ownable.sol\";\r\nimport \"@openzeppelin/contracts/utils/math/SafeMath.sol\";\r\nimport \"@openzeppelin/contracts/token/ERC20/IERC20.sol\";\r\n\r\ncontract CarAsset is Ownable, ERC721 {\r\n    struct Car {\r\n        uint256 id;\r\n        string name;\r\n        uint8 itemType;\r\n        bool minted;\r\n        uint256 mintPrice;\r\n        string image;\r\n    }\r\n\r\n    struct Trade {\r\n        uint256 id;\r\n        address poster;\r\n        address buyer;\r\n        uint256 item;\r\n        uint256 price;\r\n        bytes32 status; // Open, Executed, Cancelled\r\n        bool payWithCars;\r\n    }\r\n\r\n    event TradeExecuted(uint256 trade, uint256 item, uint256 timestamp);\r\n    event TradeOpened(uint256 trade);\r\n\r\n    IERC20 private carsToken;\r\n    uint256 private tradeCounter;\r\n    uint256 private itemIds = 1; // start at 0 to prevent the check the id against 0\r\n    uint256 private constant feeDenominator = 20; // (1 / 20) => 5% fees\r\n\r\n    mapping(uint256 => Car) public cars;\r\n    mapping(uint256 => Trade) private _tradesByTradeId;\r\n    mapping(uint256 => Trade) private _tradesByItemId;\r\n    mapping(uint256 => bool) private _tradesLocked;\r\n\r\n    constructor(address _carsToken) ERC721(\"CRR Car Asset\", \"CRRCarAsset\") {\r\n        carsToken = IERC20(_carsToken);\r\n        tradeCounter = 0;\r\n    }\r\n\r\n    modifier canExecuteTrade(uint256 _trade) {\r\n        require(!_tradesLocked[_trade]);\r\n        \r\n        Trade memory trade = _tradesByTradeId[_trade];\r\n        require(trade.status == \"Open\");\r\n        require(ownerOf(trade.item) == trade.poster);\r\n\r\n        // only for security to prevent any sneaky edit => should never actually trigger\r\n        require(getApproved(trade.item) == address(this));\r\n        _;\r\n    }\r\n\r\n    // mints an item\r\n    function mintItem(uint item) external payable {\r\n        Car memory car = cars[item];\r\n        require(car.mintPrice != 0);\r\n        require(!car.minted);\r\n\r\n        payable(owner()).transfer(car.mintPrice);\r\n        _mint(msg.sender, item);\r\n\r\n        cars[item].minted = true;\r\n        cars[item].mintPrice = 0; // does not need to be visible after buying\r\n    }\r\n\r\n    // adds an item to the mintung pool\r\n    function addToMint(string memory name, uint8 itemType, uint price, string memory image) public onlyOwner {\r\n        addToMint(name, itemType, price, image, address(0));\r\n    }\r\n    function addToMint(string memory name, uint8 itemType, uint price, string memory image, address to) public onlyOwner {\r\n        uint256 id = itemIds++;\r\n\r\n        cars[id] = Car({\r\n            id: id,\r\n            minted: false,\r\n            name: name,\r\n            itemType: itemType,\r\n            mintPrice: price,\r\n            image: image\r\n        });\r\n\r\n        if (to != address(0)) {\r\n            _mint(to, id);\r\n            cars[id].minted = true;\r\n        }\r\n    }\r\n\r\n    // gets the details of an item by id\r\n    function getItemDetail(uint item) external view returns (string memory, uint8, uint256, bool, string memory) {\r\n        require(item < itemIds);\r\n        \r\n        Car memory car = cars[item];\r\n        return (car.name, car.itemType, car.mintPrice, car.minted, car.image);\r\n    }\r\n\r\n    // returns all the itemIds of the items that are currently available for minting\r\n    function getAvailableForMint() external view returns (uint256[] memory) {\r\n        // get the size off all available\r\n        uint256[] memory available = new uint256[](itemIds - 1);\r\n        uint256 size;\r\n\r\n        for (uint256 item = 1; item < itemIds; item++) {\r\n            Car memory car = cars[item];\r\n            if (!car.minted) {\r\n                available[size++] = item;\r\n            }\r\n        }\r\n\r\n        return slice(available, size);\r\n    }\r\n\r\n    // check if an item is listed for sale\r\n    function isApprovedForSale(uint item) external view returns (bool) {\r\n        return getApproved(item) == address(this);\r\n    }\r\n\r\n    // get the collection of a user\r\n    function getCollection(address user) external view returns (uint256[] memory) {\r\n        // get the size off all available\r\n        uint256 size;\r\n        uint256[] memory available = new uint256[](itemIds - 1);\r\n\r\n        for (uint256 item = 1; item < itemIds; item++) {\r\n            Car memory car = cars[item];\r\n            if (car.minted && ownerOf(item) == user) {\r\n                available[size++] = item;\r\n            }\r\n        }\r\n\r\n        return slice(available, size);\r\n    }\r\n\r\n    // open a new trade \r\n    function openTrade(uint256 _item, uint256 _price, bool _useCarsToken) external {\r\n        require(ownerOf(_item) == msg.sender);\r\n        require(getApproved(_item) == address(this));\r\n        require(_tradesByItemId[_item].poster == address(0));\r\n\r\n        uint256 id = tradeCounter++;\r\n\r\n        Trade memory trade = Trade({\r\n            id: id,\r\n            poster: msg.sender,\r\n            item: _item,\r\n            price: _price,\r\n            status: \"Open\",\r\n            buyer: address(0),\r\n            payWithCars: _useCarsToken\r\n        });\r\n\r\n        // always overwrides when an item is traded multiple times\r\n        _tradesByItemId[_item] = trade;\r\n        _tradesByTradeId[id] = trade;\r\n\r\n        emit TradeOpened(id);\r\n    }\r\n\r\n    // execure the trade with BNB\r\n    function executeTradeBNB(uint256 _trade) external payable canExecuteTrade(_trade) {\r\n        Trade memory trade = _tradesByTradeId[_trade];\r\n        require(msg.value == trade.price);\r\n        require(!trade.payWithCars);\r\n\r\n        _tradesLocked[_trade] = true;\r\n        uint256 fees = SafeMath.div(trade.price, feeDenominator);\r\n        (bool feePaid, ) = payable(owner()).call{ value: fees }(\"\");\r\n        (bool posterPaid, ) = payable(trade.poster).call{ value: trade.price - fees }(\"\");\r\n        _tradesLocked[_trade] = false;\r\n\r\n        require(feePaid);\r\n        require(posterPaid);\r\n\r\n        _executeTrade(_trade);\r\n    }\r\n\r\n    // execute the trade with CRACE\r\n    function executeTradeCARS(uint256 _trade) external canExecuteTrade(_trade) {\r\n        Trade memory trade = _tradesByTradeId[_trade];\r\n        require(trade.payWithCars);\r\n        require(carsToken.allowance(msg.sender, address(this)) >= trade.price);\r\n\r\n        _tradesLocked[_trade] = true;\r\n        carsToken.transferFrom(msg.sender, trade.poster, trade.price);\r\n        _tradesLocked[_trade] = false;\r\n\r\n        _executeTrade(_trade);\r\n    }\r\n\r\n    // cancel the trade\r\n    function cancelTrade(uint256 _trade) external canExecuteTrade(_trade) {\r\n        Trade memory trade = _tradesByTradeId[_trade];\r\n        require(msg.sender == trade.poster);\r\n        require(trade.status == \"Open\");\r\n        require(ownerOf(trade.item) == msg.sender);\r\n\r\n        _tradesByTradeId[_trade].status = \"Cancelled\";\r\n        delete _tradesByItemId[trade.item];\r\n\r\n        // unapprove item\r\n        approve(address(0), trade.item);\r\n    }\r\n\r\n    // get details of a trade by id\r\n    function getTrade(uint256 _trade) external view returns(address, uint256, uint256, bytes32, bool) {\r\n        Trade memory trade = _tradesByTradeId[_trade];\r\n        return (trade.poster, trade.item, trade.price, trade.status, trade.payWithCars);\r\n    }\r\n\r\n    // returns all id's of the open trades\r\n    function getOpenTrades() external view returns (uint256[] memory) {\r\n        uint256 size;\r\n        uint256[] memory available = new uint256[](tradeCounter);\r\n\r\n        for (uint256 id; id < tradeCounter; id++) {\r\n            Trade memory trade = _tradesByTradeId[id];\r\n            if (trade.status == \"Open\" && getApproved(trade.item) == address(this)) {\r\n                available[size++] = id;\r\n            }\r\n        }\r\n\r\n        return slice(available, size);\r\n    }\r\n\r\n    function totalSupply() external view returns (uint256) {\r\n        return itemIds;\r\n    }\r\n\r\n    // get trade if of by item\r\n    function getTradeIdByItem(uint256 item) external view returns (int) {\r\n        Trade memory trade = _tradesByItemId[item];\r\n        if (trade.poster == address(0)) {\r\n            return -1;\r\n        } else {\r\n            return int(trade.id);\r\n        }\r\n    }\r\n\r\n    function slice(uint256[] memory items, uint256 size) internal pure returns (uint256[] memory) {\r\n        uint256[] memory newItems = new uint256[](size);\r\n\r\n        for (uint256 index = 0; index < size; index++) {\r\n            newItems[index] = items[index];\r\n        }\r\n\r\n        return newItems;\r\n    }\r\n\r\n    // internal trade execution => transfer item\r\n    function _executeTrade(uint256 _trade) internal {\r\n        Trade memory trade = _tradesByTradeId[_trade];\r\n        _tradesByTradeId[_trade].status = \"Executed\";\r\n        _tradesByTradeId[_trade].buyer = msg.sender;\r\n\r\n        transferFrom(trade.poster, msg.sender, trade.item);\r\n        delete _tradesByItemId[trade.item];\r\n\r\n        emit TradeExecuted(_trade, trade.item, block.timestamp);\r\n    }\r\n}",
  "sourcePath": "C:\\Users\\DESKTOPTOP\\Documents\\crr-public\\solidity\\contracts\\CarAsset.sol",
  "compiler": {
    "name": "solc",
    "version": "0.8.10+commit.fc410830.Emscripten.clang"
  },
  "schemaVersion": "3.4.4",
  "updatedAt": "2022-01-05T19:51:34.760Z",
  "networkType": "ethereum",
  "devdoc": {
    "kind": "dev",
    "methods": {
      "approve(address,uint256)": {
        "details": "See {IERC721-approve}."
      },
      "balanceOf(address)": {
        "details": "See {IERC721-balanceOf}."
      },
      "getApproved(uint256)": {
        "details": "See {IERC721-getApproved}."
      },
      "isApprovedForAll(address,address)": {
        "details": "See {IERC721-isApprovedForAll}."
      },
      "name()": {
        "details": "See {IERC721Metadata-name}."
      },
      "owner()": {
        "details": "Returns the address of the current owner."
      },
      "ownerOf(uint256)": {
        "details": "See {IERC721-ownerOf}."
      },
      "renounceOwnership()": {
        "details": "Leaves the contract without owner. It will not be possible to call `onlyOwner` functions anymore. Can only be called by the current owner. NOTE: Renouncing ownership will leave the contract without an owner, thereby removing any functionality that is only available to the owner."
      },
      "safeTransferFrom(address,address,uint256)": {
        "details": "See {IERC721-safeTransferFrom}."
      },
      "safeTransferFrom(address,address,uint256,bytes)": {
        "details": "See {IERC721-safeTransferFrom}."
      },
      "setApprovalForAll(address,bool)": {
        "details": "See {IERC721-setApprovalForAll}."
      },
      "supportsInterface(bytes4)": {
        "details": "See {IERC165-supportsInterface}."
      },
      "symbol()": {
        "details": "See {IERC721Metadata-symbol}."
      },
      "tokenURI(uint256)": {
        "details": "See {IERC721Metadata-tokenURI}."
      },
      "transferFrom(address,address,uint256)": {
        "details": "See {IERC721-transferFrom}."
      },
      "transferOwnership(address)": {
        "details": "Transfers ownership of the contract to a new account (`newOwner`). Can only be called by the current owner."
      }
    },
    "version": 1
  },
  "userdoc": {
    "kind": "user",
    "methods": {},
    "version": 1
  }
}