{
  "contractName": "GameRewards",
  "abi": [
    {
      "inputs": [
        {
          "internalType": "address",
          "name": "_carsToken",
          "type": "address"
        }
      ],
      "stateMutability": "nonpayable",
      "type": "constructor"
    },
    {
      "anonymous": false,
      "inputs": [
        {
          "indexed": false,
          "internalType": "uint256",
          "name": "gameId",
          "type": "uint256"
        }
      ],
      "name": "GameCreated",
      "type": "event"
    },
    {
      "inputs": [
        {
          "internalType": "address",
          "name": "newOwner",
          "type": "address"
        }
      ],
      "name": "setOwner",
      "outputs": [],
      "stateMutability": "nonpayable",
      "type": "function"
    },
    {
      "inputs": [
        {
          "internalType": "uint256",
          "name": "_game",
          "type": "uint256"
        }
      ],
      "name": "claimReward",
      "outputs": [],
      "stateMutability": "nonpayable",
      "type": "function"
    },
    {
      "inputs": [
        {
          "internalType": "bytes32",
          "name": "name",
          "type": "bytes32"
        },
        {
          "internalType": "uint256",
          "name": "entryPrice",
          "type": "uint256"
        }
      ],
      "name": "createGame",
      "outputs": [],
      "stateMutability": "nonpayable",
      "type": "function"
    },
    {
      "inputs": [
        {
          "internalType": "address",
          "name": "to",
          "type": "address"
        }
      ],
      "name": "collectFees",
      "outputs": [],
      "stateMutability": "nonpayable",
      "type": "function"
    },
    {
      "inputs": [],
      "name": "getCollectableFees",
      "outputs": [
        {
          "internalType": "uint256",
          "name": "",
          "type": "uint256"
        }
      ],
      "stateMutability": "view",
      "type": "function",
      "constant": true
    },
    {
      "inputs": [
        {
          "internalType": "uint256",
          "name": "_game",
          "type": "uint256"
        }
      ],
      "name": "joinGame",
      "outputs": [],
      "stateMutability": "nonpayable",
      "type": "function"
    },
    {
      "inputs": [
        {
          "internalType": "uint256",
          "name": "_game",
          "type": "uint256"
        },
        {
          "internalType": "address[]",
          "name": "players",
          "type": "address[]"
        },
        {
          "internalType": "uint256[]",
          "name": "rewards",
          "type": "uint256[]"
        },
        {
          "internalType": "bytes32[]",
          "name": "messages",
          "type": "bytes32[]"
        },
        {
          "internalType": "bool[]",
          "name": "applyFees",
          "type": "bool[]"
        }
      ],
      "name": "setRewards",
      "outputs": [],
      "stateMutability": "nonpayable",
      "type": "function"
    },
    {
      "inputs": [
        {
          "internalType": "address",
          "name": "player",
          "type": "address"
        }
      ],
      "name": "listRewards",
      "outputs": [
        {
          "internalType": "uint256[]",
          "name": "",
          "type": "uint256[]"
        }
      ],
      "stateMutability": "view",
      "type": "function",
      "constant": true
    },
    {
      "inputs": [
        {
          "internalType": "address",
          "name": "player",
          "type": "address"
        },
        {
          "internalType": "uint256",
          "name": "game",
          "type": "uint256"
        }
      ],
      "name": "getRewardDetail",
      "outputs": [
        {
          "internalType": "uint256",
          "name": "",
          "type": "uint256"
        },
        {
          "internalType": "bool",
          "name": "",
          "type": "bool"
        },
        {
          "internalType": "bool",
          "name": "",
          "type": "bool"
        },
        {
          "internalType": "bytes32",
          "name": "",
          "type": "bytes32"
        },
        {
          "internalType": "bool",
          "name": "",
          "type": "bool"
        }
      ],
      "stateMutability": "view",
      "type": "function",
      "constant": true
    },
    {
      "inputs": [
        {
          "internalType": "uint256",
          "name": "_game",
          "type": "uint256"
        }
      ],
      "name": "getPlayersByGame",
      "outputs": [
        {
          "internalType": "address[]",
          "name": "",
          "type": "address[]"
        }
      ],
      "stateMutability": "view",
      "type": "function",
      "constant": true
    },
    {
      "inputs": [
        {
          "internalType": "uint256",
          "name": "_game",
          "type": "uint256"
        }
      ],
      "name": "getGameDetail",
      "outputs": [
        {
          "internalType": "bytes32",
          "name": "",
          "type": "bytes32"
        },
        {
          "internalType": "bytes32",
          "name": "",
          "type": "bytes32"
        },
        {
          "internalType": "uint256",
          "name": "",
          "type": "uint256"
        },
        {
          "internalType": "uint256",
          "name": "",
          "type": "uint256"
        },
        {
          "internalType": "uint8",
          "name": "",
          "type": "uint8"
        }
      ],
      "stateMutability": "view",
      "type": "function",
      "constant": true
    },
    {
      "inputs": [
        {
          "internalType": "uint256",
          "name": "_game",
          "type": "uint256"
        }
      ],
      "name": "fallbackClaim",
      "outputs": [],
      "stateMutability": "nonpayable",
      "type": "function"
    }
  ],
  "bytecode": "0x60806040523480156200001157600080fd5b5060405162003a3438038062003a3483398181016040528101906200003791906200012a565b80600260006101000a81548173ffffffffffffffffffffffffffffffffffffffff021916908373ffffffffffffffffffffffffffffffffffffffff16021790555033600360006101000a81548173ffffffffffffffffffffffffffffffffffffffff021916908373ffffffffffffffffffffffffffffffffffffffff160217905550506200015c565b600080fd5b600073ffffffffffffffffffffffffffffffffffffffff82169050919050565b6000620000f282620000c5565b9050919050565b6200010481620000e5565b81146200011057600080fd5b50565b6000815190506200012481620000f9565b92915050565b600060208284031215620001435762000142620000c0565b5b6000620001538482850162000113565b91505092915050565b6138c8806200016c6000396000f3fe608060405234801561001057600080fd5b50600436106100b45760003560e01c8063ae169a5011610071578063ae169a501461018f578063b31edac3146101ab578063c0b9c53c146101db578063c2a43131146101f7578063e8da357f1461022b578063efaa55a014610247576100b4565b806313af4035146100b95780632a74dbac146100d55780633a7458ee146100f157806370fbc6e514610125578063a480ca7914610155578063a4d5343b14610171575b600080fd5b6100d360048036038101906100ce9190612731565b610263565b005b6100ef60048036038101906100ea9190612794565b610301565b005b61010b600480360381019061010691906127c1565b610873565b60405161011c959493929190612844565b60405180910390f35b61013f600480360381019061013a9190612731565b610987565b60405161014c9190612955565b60405180910390f35b61016f600480360381019061016a9190612731565b610bbe565b005b610179610cc6565b6040516101869190612977565b60405180910390f35b6101a960048036038101906101a49190612794565b610cd0565b005b6101c560048036038101906101c09190612794565b6112f3565b6040516101d29190612a50565b60405180910390f35b6101f560048036038101906101f09190612a9e565b611503565b005b610211600480360381019061020c9190612794565b6116d4565b604051610222959493929190612afa565b60405180910390f35b61024560048036038101906102409190612f1b565b61199b565b005b610261600480360381019061025c9190612794565b612006565b005b600360009054906101000a900473ffffffffffffffffffffffffffffffffffffffff1673ffffffffffffffffffffffffffffffffffffffff163373ffffffffffffffffffffffffffffffffffffffff16146102bd57600080fd5b80600360006101000a81548173ffffffffffffffffffffffffffffffffffffffff021916908373ffffffffffffffffffffffffffffffffffffffff16021790555050565b8060006004600083815260200190815260200160002060405180610120016040529081600082015481526020016001820160009054906101000a900460ff161515151581526020016002820154815260200160038201548152602001600482015481526020016005820160009054906101000a900460ff1660ff1660ff1681526020016006820180548060200260200160405190810160405280929190818152602001828054801561040857602002820191906000526020600020905b8160009054906101000a900473ffffffffffffffffffffffffffffffffffffffff1673ffffffffffffffffffffffffffffffffffffffff16815260200190600101908083116103be575b50505050508152602001600782015481526020016008820154815250509050806020015161046b576040517f08c379a000000000000000000000000000000000000000000000000000000000815260040161046290613063565b60405180910390fd5b60006004600085815260200190815260200160002060405180610120016040529081600082015481526020016001820160009054906101000a900460ff161515151581526020016002820154815260200160038201548152602001600482015481526020016005820160009054906101000a900460ff1660ff1660ff1681526020016006820180548060200260200160405190810160405280929190818152602001828054801561057157602002820191906000526020600020905b8160009054906101000a900473ffffffffffffffffffffffffffffffffffffffff1673ffffffffffffffffffffffffffffffffffffffff1681526020019060010190808311610527575b5050505050815260200160078201548152602001600882015481525050905060006005600086815260200190815260200160002060003373ffffffffffffffffffffffffffffffffffffffff1673ffffffffffffffffffffffffffffffffffffffff1681526020019081526020016000206040518060c0016040529081600082015481526020016001820160009054906101000a900460ff161515151581526020016001820160019054906101000a900460ff16151515158152602001600282015481526020016003820160009054906101000a900460ff161515151581526020016003820160019054906101000a900460ff161515151581525050905080604001511561067e57600080fd5b6201518082610100015161069291906130b2565b421161069d57600080fd5b6106ab8260c0015133612590565b6106b457600080fd5b7f706c6179696e67000000000000000000000000000000000000000000000000008260e00151146106e457600080fd5b7f63616e63656c6c6564000000000000000000000000000000000000000000000060046000878152602001908152602001600020600701819055506040518060c00160405280836060015181526020016000151581526020016001151581526020017f46616c6c6261636b0000000000000000000000000000000000000000000000008152602001600015158152602001600115158152506005600087815260200190815260200160002060003373ffffffffffffffffffffffffffffffffffffffff1673ffffffffffffffffffffffffffffffffffffffff1681526020019081526020016000206000820151816000015560208201518160010160006101000a81548160ff02191690831515021790555060408201518160010160016101000a81548160ff0219169083151502179055506060820151816002015560808201518160030160006101000a81548160ff02191690831515021790555060a08201518160030160016101000a81548160ff02191690831515021790555090505061086c85610cd0565b5050505050565b6000806000806000806005600088815260200190815260200160002060008973ffffffffffffffffffffffffffffffffffffffff1673ffffffffffffffffffffffffffffffffffffffff1681526020019081526020016000206040518060c0016040529081600082015481526020016001820160009054906101000a900460ff161515151581526020016001820160019054906101000a900460ff16151515158152602001600282015481526020016003820160009054906101000a900460ff161515151581526020016003820160019054906101000a900460ff16151515158152505090508060000151816040015182602001518360600151846080015195509550955095509550509295509295909350565b6060600080600090505b600054811015610a6657610a3f60046000838152602001908152602001600020600601805480602002602001604051908101604052809291908181526020018280548015610a3457602002820191906000526020600020905b8160009054906101000a900473ffffffffffffffffffffffffffffffffffffffff1673ffffffffffffffffffffffffffffffffffffffff16815260200190600101908083116109ea575b505050505085612590565b15610a53578180610a4f90613108565b9250505b8080610a5e90613108565b915050610991565b5060008167ffffffffffffffff811115610a8357610a82612b63565b5b604051908082528060200260200182016040528015610ab15781602001602082028036833780820191505090505b509050600080600090505b600054811015610bb257610b6a60046000838152602001908152602001600020600601805480602002602001604051908101604052809291908181526020018280548015610b5f57602002820191906000526020600020905b8160009054906101000a900473ffffffffffffffffffffffffffffffffffffffff1673ffffffffffffffffffffffffffffffffffffffff1681526020019060010190808311610b15575b505050505087612590565b15610b9f5780838381518110610b8357610b82613151565b5b602002602001018181525050600182610b9c91906130b2565b91505b8080610baa90613108565b915050610abc565b50819350505050919050565b600360009054906101000a900473ffffffffffffffffffffffffffffffffffffffff1673ffffffffffffffffffffffffffffffffffffffff163373ffffffffffffffffffffffffffffffffffffffff1614610c1857600080fd5b600260009054906101000a900473ffffffffffffffffffffffffffffffffffffffff1673ffffffffffffffffffffffffffffffffffffffff1663a9059cbb826001546040518363ffffffff1660e01b8152600401610c7792919061318f565b6020604051808303816000875af1158015610c96573d6000803e3d6000fd5b505050506040513d601f19601f82011682018060405250810190610cba91906131cd565b50600060018190555050565b6000600154905090565b8060006004600083815260200190815260200160002060405180610120016040529081600082015481526020016001820160009054906101000a900460ff161515151581526020016002820154815260200160038201548152602001600482015481526020016005820160009054906101000a900460ff1660ff1660ff16815260200160068201805480602002602001604051908101604052809291908181526020018280548015610dd757602002820191906000526020600020905b8160009054906101000a900473ffffffffffffffffffffffffffffffffffffffff1673ffffffffffffffffffffffffffffffffffffffff1681526020019060010190808311610d8d575b505050505081526020016007820154815260200160088201548152505090508060200151610e3a576040517f08c379a0000000000000000000000000000000000000000000000000000000008152600401610e3190613063565b60405180910390fd5b60006005600085815260200190815260200160002060003373ffffffffffffffffffffffffffffffffffffffff1673ffffffffffffffffffffffffffffffffffffffff1681526020019081526020016000206040518060c0016040529081600082015481526020016001820160009054906101000a900460ff161515151581526020016001820160019054906101000a900460ff16151515158152602001600282015481526020016003820160009054906101000a900460ff161515151581526020016003820160019054906101000a900460ff161515151581525050905060006004600086815260200190815260200160002060405180610120016040529081600082015481526020016001820160009054906101000a900460ff161515151581526020016002820154815260200160038201548152602001600482015481526020016005820160009054906101000a900460ff1660ff1660ff1681526020016006820180548060200260200160405190810160405280929190818152602001828054801561101f57602002820191906000526020600020905b8160009054906101000a900473ffffffffffffffffffffffffffffffffffffffff1673ffffffffffffffffffffffffffffffffffffffff1681526020019060010190808311610fd5575b505050505081526020016007820154815260200160088201548152505090507f6f766572000000000000000000000000000000000000000000000000000000008160e00151148061107157508160a001515b61107a57600080fd5b81604001516110be576040517f08c379a00000000000000000000000000000000000000000000000000000000081526004016110b590613246565b60405180910390fd5b6000826000015111611105576040517f08c379a00000000000000000000000000000000000000000000000000000000081526004016110fc906132b2565b60405180910390fd5b81602001511561114a576040517f08c379a00000000000000000000000000000000000000000000000000000000081526004016111419061331e565b60405180910390fd5b6111588160c0015133612590565b611197576040517f08c379a000000000000000000000000000000000000000000000000000000000815260040161118e9061338a565b60405180910390fd5b60016005600087815260200190815260200160002060003373ffffffffffffffffffffffffffffffffffffffff1673ffffffffffffffffffffffffffffffffffffffff16815260200190815260200160002060010160006101000a81548160ff0219169083151502179055506000600260009054906101000a900473ffffffffffffffffffffffffffffffffffffffff1673ffffffffffffffffffffffffffffffffffffffff1663a9059cbb3385600001516040518363ffffffff1660e01b815260040161126692919061318f565b6020604051808303816000875af1158015611285573d6000803e3d6000fd5b505050506040513d601f19601f820116820180604052508101906112a991906131cd565b9050806112eb576040517f08c379a00000000000000000000000000000000000000000000000000000000081526004016112e2906133f6565b60405180910390fd5b505050505050565b60608160006004600083815260200190815260200160002060405180610120016040529081600082015481526020016001820160009054906101000a900460ff161515151581526020016002820154815260200160038201548152602001600482015481526020016005820160009054906101000a900460ff1660ff1660ff168152602001600682018054806020026020016040519081016040528092919081815260200182805480156113fc57602002820191906000526020600020905b8160009054906101000a900473ffffffffffffffffffffffffffffffffffffffff1673ffffffffffffffffffffffffffffffffffffffff16815260200190600101908083116113b2575b50505050508152602001600782015481526020016008820154815250509050806020015161145f576040517f08c379a000000000000000000000000000000000000000000000000000000000815260040161145690613063565b60405180910390fd5b600460008581526020019081526020016000206006018054806020026020016040519081016040528092919081815260200182805480156114f557602002820191906000526020600020905b8160009054906101000a900473ffffffffffffffffffffffffffffffffffffffff1673ffffffffffffffffffffffffffffffffffffffff16815260200190600101908083116114ab575b505050505092505050919050565b600360009054906101000a900473ffffffffffffffffffffffffffffffffffffffff1673ffffffffffffffffffffffffffffffffffffffff163373ffffffffffffffffffffffffffffffffffffffff161461155d57600080fd5b600080549050606060405180610120016040528085815260200160011515815260200183815260200184815260200160008152602001601460ff1681526020018281526020017f706c6179696e6700000000000000000000000000000000000000000000000000815260200142815250600460008481526020019081526020016000206000820151816000015560208201518160010160006101000a81548160ff02191690831515021790555060408201518160020155606082015181600301556080820151816004015560a08201518160050160006101000a81548160ff021916908360ff16021790555060c0820151816006019080519060200190611665929190612618565b5060e082015181600701556101008201518160080155905050600160008082825461169091906130b2565b925050819055507fbd19c47e9925eb6f7be8bb1c13a841e0240aaeaf17f217e90022e9c8eb66877f826040516116c69190612977565b60405180910390a150505050565b60008060008060008560006004600083815260200190815260200160002060405180610120016040529081600082015481526020016001820160009054906101000a900460ff161515151581526020016002820154815260200160038201548152602001600482015481526020016005820160009054906101000a900460ff1660ff1660ff168152602001600682018054806020026020016040519081016040528092919081815260200182805480156117e357602002820191906000526020600020905b8160009054906101000a900473ffffffffffffffffffffffffffffffffffffffff1673ffffffffffffffffffffffffffffffffffffffff1681526020019060010190808311611799575b505050505081526020016007820154815260200160088201548152505090508060200151611846576040517f08c379a000000000000000000000000000000000000000000000000000000000815260040161183d90613063565b60405180910390fd5b6000600460008a815260200190815260200160002060405180610120016040529081600082015481526020016001820160009054906101000a900460ff161515151581526020016002820154815260200160038201548152602001600482015481526020016005820160009054906101000a900460ff1660ff1660ff1681526020016006820180548060200260200160405190810160405280929190818152602001828054801561194c57602002820191906000526020600020905b8160009054906101000a900473ffffffffffffffffffffffffffffffffffffffff1673ffffffffffffffffffffffffffffffffffffffff1681526020019060010190808311611902575b5050505050815260200160078201548152602001600882015481525050905080600001518160e0015182606001518361010001518460a001519750975097509750975050505091939590929450565b600360009054906101000a900473ffffffffffffffffffffffffffffffffffffffff1673ffffffffffffffffffffffffffffffffffffffff163373ffffffffffffffffffffffffffffffffffffffff16146119f557600080fd5b8460006004600083815260200190815260200160002060405180610120016040529081600082015481526020016001820160009054906101000a900460ff161515151581526020016002820154815260200160038201548152602001600482015481526020016005820160009054906101000a900460ff1660ff1660ff16815260200160068201805480602002602001604051908101604052809291908181526020018280548015611afc57602002820191906000526020600020905b8160009054906101000a900473ffffffffffffffffffffffffffffffffffffffff1673ffffffffffffffffffffffffffffffffffffffff1681526020019060010190808311611ab2575b505050505081526020016007820154815260200160088201548152505090508060200151611b5f576040517f08c379a0000000000000000000000000000000000000000000000000000000008152600401611b5690613063565b60405180910390fd5b60006004600089815260200190815260200160002060405180610120016040529081600082015481526020016001820160009054906101000a900460ff161515151581526020016002820154815260200160038201548152602001600482015481526020016005820160009054906101000a900460ff1660ff1660ff16815260200160068201805480602002602001604051908101604052809291908181526020018280548015611c6557602002820191906000526020600020905b8160009054906101000a900473ffffffffffffffffffffffffffffffffffffffff1673ffffffffffffffffffffffffffffffffffffffff1681526020019060010190808311611c1b575b505050505081526020016007820154815260200160088201548152505090507f706c6179696e67000000000000000000000000000000000000000000000000008160e0015114611cb457600080fd5b8551875114611cf8576040517f08c379a0000000000000000000000000000000000000000000000000000000008152600401611cef90613488565b60405180910390fd5b8060c0015151875114611d40576040517f08c379a0000000000000000000000000000000000000000000000000000000008152600401611d379061351a565b60405180910390fd5b6000805b8851811015611f78576000898281518110611d6257611d61613151565b5b602002602001015190506000878381518110611d8157611d80613151565b5b602002602001015115611dd7578460a0015160ff168a8481518110611da957611da8613151565b5b6020026020010151611dbb9190613569565b90508060016000828254611dcf91906130b2565b925050819055505b6000818b8581518110611ded57611dec613151565b5b6020026020010151611dff919061359a565b90508085611e0d91906130b2565b94506040518060c001604052808281526020016000151581526020016001151581526020018b8681518110611e4557611e44613151565b5b602002602001015181526020018a8681518110611e6557611e64613151565b5b60200260200101511515815260200160001515815250600560008f815260200190815260200160002060008573ffffffffffffffffffffffffffffffffffffffff1673ffffffffffffffffffffffffffffffffffffffff1681526020019081526020016000206000820151816000015560208201518160010160006101000a81548160ff02191690831515021790555060408201518160010160016101000a81548160ff0219169083151502179055506060820151816002015560808201518160030160006101000a81548160ff02191690831515021790555060a08201518160030160016101000a81548160ff0219169083151502179055509050505050508080611f7090613108565b915050611d44565b507f6f76657200000000000000000000000000000000000000000000000000000000600460008b8152602001908152602001600020600701819055508160800151811115611ffb576040517f08c379a0000000000000000000000000000000000000000000000000000000008152600401611ff290613640565b60405180910390fd5b505050505050505050565b8060006004600083815260200190815260200160002060405180610120016040529081600082015481526020016001820160009054906101000a900460ff161515151581526020016002820154815260200160038201548152602001600482015481526020016005820160009054906101000a900460ff1660ff1660ff1681526020016006820180548060200260200160405190810160405280929190818152602001828054801561210d57602002820191906000526020600020905b8160009054906101000a900473ffffffffffffffffffffffffffffffffffffffff1673ffffffffffffffffffffffffffffffffffffffff16815260200190600101908083116120c3575b505050505081526020016007820154815260200160088201548152505090508060200151612170576040517f08c379a000000000000000000000000000000000000000000000000000000000815260040161216790613063565b60405180910390fd5b60006004600085815260200190815260200160002060405180610120016040529081600082015481526020016001820160009054906101000a900460ff161515151581526020016002820154815260200160038201548152602001600482015481526020016005820160009054906101000a900460ff1660ff1660ff1681526020016006820180548060200260200160405190810160405280929190818152602001828054801561227657602002820191906000526020600020905b8160009054906101000a900473ffffffffffffffffffffffffffffffffffffffff1673ffffffffffffffffffffffffffffffffffffffff168152602001906001019080831161222c575b505050505081526020016007820154815260200160088201548152505090507f706c6179696e67000000000000000000000000000000000000000000000000008160e00151146122c557600080fd5b8060600151600260009054906101000a900473ffffffffffffffffffffffffffffffffffffffff1673ffffffffffffffffffffffffffffffffffffffff1663dd62ed3e33306040518363ffffffff1660e01b8152600401612327929190613660565b602060405180830381865afa158015612344573d6000803e3d6000fd5b505050506040513d601f19601f82011682018060405250810190612368919061369e565b10156123a9576040517f08c379a00000000000000000000000000000000000000000000000000000000081526004016123a09061373d565b60405180910390fd5b6000600260009054906101000a900473ffffffffffffffffffffffffffffffffffffffff1673ffffffffffffffffffffffffffffffffffffffff166323b872dd333085606001516040518463ffffffff1660e01b815260040161240e9392919061375d565b6020604051808303816000875af115801561242d573d6000803e3d6000fd5b505050506040513d601f19601f8201168201806040525081019061245191906131cd565b905080612493576040517f08c379a000000000000000000000000000000000000000000000000000000000815260040161248a90613806565b60405180910390fd5b6124a18260c0015133612590565b156124e1576040517f08c379a00000000000000000000000000000000000000000000000000000000081526004016124d890613872565b60405180910390fd5b816060015160046000878152602001908152602001600020600401600082825461250b91906130b2565b9250508190555060046000868152602001908152602001600020600601339080600181540180825580915050600190039060005260206000200160009091909190916101000a81548173ffffffffffffffffffffffffffffffffffffffff021916908373ffffffffffffffffffffffffffffffffffffffff1602179055505050505050565b600080600090505b835181101561260c578273ffffffffffffffffffffffffffffffffffffffff168482815181106125cb576125ca613151565b5b602002602001015173ffffffffffffffffffffffffffffffffffffffff1614156125f9576001915050612612565b808061260490613108565b915050612598565b50600090505b92915050565b828054828255906000526020600020908101928215612691579160200282015b828111156126905782518260006101000a81548173ffffffffffffffffffffffffffffffffffffffff021916908373ffffffffffffffffffffffffffffffffffffffff16021790555091602001919060010190612638565b5b50905061269e91906126a2565b5090565b5b808211156126bb5760008160009055506001016126a3565b5090565b6000604051905090565b600080fd5b600080fd5b600073ffffffffffffffffffffffffffffffffffffffff82169050919050565b60006126fe826126d3565b9050919050565b61270e816126f3565b811461271957600080fd5b50565b60008135905061272b81612705565b92915050565b600060208284031215612747576127466126c9565b5b60006127558482850161271c565b91505092915050565b6000819050919050565b6127718161275e565b811461277c57600080fd5b50565b60008135905061278e81612768565b92915050565b6000602082840312156127aa576127a96126c9565b5b60006127b88482850161277f565b91505092915050565b600080604083850312156127d8576127d76126c9565b5b60006127e68582860161271c565b92505060206127f78582860161277f565b9150509250929050565b61280a8161275e565b82525050565b60008115159050919050565b61282581612810565b82525050565b6000819050919050565b61283e8161282b565b82525050565b600060a0820190506128596000830188612801565b612866602083018761281c565b612873604083018661281c565b6128806060830185612835565b61288d608083018461281c565b9695505050505050565b600081519050919050565b600082825260208201905092915050565b6000819050602082019050919050565b6128cc8161275e565b82525050565b60006128de83836128c3565b60208301905092915050565b6000602082019050919050565b600061290282612897565b61290c81856128a2565b9350612917836128b3565b8060005b8381101561294857815161292f88826128d2565b975061293a836128ea565b92505060018101905061291b565b5085935050505092915050565b6000602082019050818103600083015261296f81846128f7565b905092915050565b600060208201905061298c6000830184612801565b92915050565b600081519050919050565b600082825260208201905092915050565b6000819050602082019050919050565b6129c7816126f3565b82525050565b60006129d983836129be565b60208301905092915050565b6000602082019050919050565b60006129fd82612992565b612a07818561299d565b9350612a12836129ae565b8060005b83811015612a43578151612a2a88826129cd565b9750612a35836129e5565b925050600181019050612a16565b5085935050505092915050565b60006020820190508181036000830152612a6a81846129f2565b905092915050565b612a7b8161282b565b8114612a8657600080fd5b50565b600081359050612a9881612a72565b92915050565b60008060408385031215612ab557612ab46126c9565b5b6000612ac385828601612a89565b9250506020612ad48582860161277f565b9150509250929050565b600060ff82169050919050565b612af481612ade565b82525050565b600060a082019050612b0f6000830188612835565b612b1c6020830187612835565b612b296040830186612801565b612b366060830185612801565b612b436080830184612aeb565b9695505050505050565b600080fd5b6000601f19601f8301169050919050565b7f4e487b7100000000000000000000000000000000000000000000000000000000600052604160045260246000fd5b612b9b82612b52565b810181811067ffffffffffffffff82111715612bba57612bb9612b63565b5b80604052505050565b6000612bcd6126bf565b9050612bd98282612b92565b919050565b600067ffffffffffffffff821115612bf957612bf8612b63565b5b602082029050602081019050919050565b600080fd5b6000612c22612c1d84612bde565b612bc3565b90508083825260208201905060208402830185811115612c4557612c44612c0a565b5b835b81811015612c6e5780612c5a888261271c565b845260208401935050602081019050612c47565b5050509392505050565b600082601f830112612c8d57612c8c612b4d565b5b8135612c9d848260208601612c0f565b91505092915050565b600067ffffffffffffffff821115612cc157612cc0612b63565b5b602082029050602081019050919050565b6000612ce5612ce084612ca6565b612bc3565b90508083825260208201905060208402830185811115612d0857612d07612c0a565b5b835b81811015612d315780612d1d888261277f565b845260208401935050602081019050612d0a565b5050509392505050565b600082601f830112612d5057612d4f612b4d565b5b8135612d60848260208601612cd2565b91505092915050565b600067ffffffffffffffff821115612d8457612d83612b63565b5b602082029050602081019050919050565b6000612da8612da384612d69565b612bc3565b90508083825260208201905060208402830185811115612dcb57612dca612c0a565b5b835b81811015612df45780612de08882612a89565b845260208401935050602081019050612dcd565b5050509392505050565b600082601f830112612e1357612e12612b4d565b5b8135612e23848260208601612d95565b91505092915050565b600067ffffffffffffffff821115612e4757612e46612b63565b5b602082029050602081019050919050565b612e6181612810565b8114612e6c57600080fd5b50565b600081359050612e7e81612e58565b92915050565b6000612e97612e9284612e2c565b612bc3565b90508083825260208201905060208402830185811115612eba57612eb9612c0a565b5b835b81811015612ee35780612ecf8882612e6f565b845260208401935050602081019050612ebc565b5050509392505050565b600082601f830112612f0257612f01612b4d565b5b8135612f12848260208601612e84565b91505092915050565b600080600080600060a08688031215612f3757612f366126c9565b5b6000612f458882890161277f565b955050602086013567ffffffffffffffff811115612f6657612f656126ce565b5b612f7288828901612c78565b945050604086013567ffffffffffffffff811115612f9357612f926126ce565b5b612f9f88828901612d3b565b935050606086013567ffffffffffffffff811115612fc057612fbf6126ce565b5b612fcc88828901612dfe565b925050608086013567ffffffffffffffff811115612fed57612fec6126ce565b5b612ff988828901612eed565b9150509295509295909350565b600082825260208201905092915050565b7f4e6f20737563682067616d650000000000000000000000000000000000000000600082015250565b600061304d600c83613006565b915061305882613017565b602082019050919050565b6000602082019050818103600083015261307c81613040565b9050919050565b7f4e487b7100000000000000000000000000000000000000000000000000000000600052601160045260246000fd5b60006130bd8261275e565b91506130c88361275e565b9250827fffffffffffffffffffffffffffffffffffffffffffffffffffffffffffffffff038211156130fd576130fc613083565b5b828201905092915050565b60006131138261275e565b91507fffffffffffffffffffffffffffffffffffffffffffffffffffffffffffffffff82141561314657613145613083565b5b600182019050919050565b7f4e487b7100000000000000000000000000000000000000000000000000000000600052603260045260246000fd5b613189816126f3565b82525050565b60006040820190506131a46000830185613180565b6131b16020830184612801565b9392505050565b6000815190506131c781612e58565b92915050565b6000602082840312156131e3576131e26126c9565b5b60006131f1848285016131b8565b91505092915050565b7f526577617264206973206e6f7420726561647920746f20626520636c61696d00600082015250565b6000613230601f83613006565b915061323b826131fa565b602082019050919050565b6000602082019050818103600083015261325f81613223565b9050919050565b7f5265776172642069732030000000000000000000000000000000000000000000600082015250565b600061329c600b83613006565b91506132a782613266565b602082019050919050565b600060208201905081810360008301526132cb8161328f565b9050919050565b7f52657761726420616c726561647920636c61696d656400000000000000000000600082015250565b6000613308601683613006565b9150613313826132d2565b602082019050919050565b60006020820190508181036000830152613337816132fb565b9050919050565b7f506c6179657220646964206e6f7420617474656e6420746869732067616d6500600082015250565b6000613374601f83613006565b915061337f8261333e565b602082019050919050565b600060208201905081810360008301526133a381613367565b9050919050565b7f526577617264207472616e73666572206661696c656400000000000000000000600082015250565b60006133e0601683613006565b91506133eb826133aa565b602082019050919050565b6000602082019050818103600083015261340f816133d3565b9050919050565b7f4e6f7420616c6c20706c6179657273206861766520612072657761726420736560008201527f7400000000000000000000000000000000000000000000000000000000000000602082015250565b6000613472602183613006565b915061347d82613416565b604082019050919050565b600060208201905081810360008301526134a181613465565b9050919050565b7f526577617264656420706c617965727320646f206e6f74206d6174636820676160008201527f6d6520706c617965727300000000000000000000000000000000000000000000602082015250565b6000613504602a83613006565b915061350f826134a8565b604082019050919050565b60006020820190508181036000830152613533816134f7565b9050919050565b7f4e487b7100000000000000000000000000000000000000000000000000000000600052601260045260246000fd5b60006135748261275e565b915061357f8361275e565b92508261358f5761358e61353a565b5b828204905092915050565b60006135a58261275e565b91506135b08361275e565b9250828210156135c3576135c2613083565b5b828203905092915050565b7f4d6f72652072657761726473207061796564207468617420746865207072696360008201527f65706f6f6c000000000000000000000000000000000000000000000000000000602082015250565b600061362a602583613006565b9150613635826135ce565b604082019050919050565b600060208201905081810360008301526136598161361d565b9050919050565b60006040820190506136756000830185613180565b6136826020830184613180565b9392505050565b60008151905061369881612768565b92915050565b6000602082840312156136b4576136b36126c9565b5b60006136c284828501613689565b91505092915050565b7f4e6f7420656e6f75676874204341525320546f6b656e20617070726f7665642060008201527f746f20656e746572000000000000000000000000000000000000000000000000602082015250565b6000613727602883613006565b9150613732826136cb565b604082019050919050565b600060208201905081810360008301526137568161371a565b9050919050565b60006060820190506137726000830186613180565b61377f6020830185613180565b61378c6040830184612801565b949350505050565b7f546f6b656e207472616e7366657220776173206e6f742073756363657373667560008201527f6c6c000000000000000000000000000000000000000000000000000000000000602082015250565b60006137f0602283613006565b91506137fb82613794565b604082019050919050565b6000602082019050818103600083015261381f816137e3565b9050919050565b7f506c6179657220697320616c726561647920696e20746869732067616d650000600082015250565b600061385c601e83613006565b915061386782613826565b602082019050919050565b6000602082019050818103600083015261388b8161384f565b905091905056fea2646970667358221220ba24b16442f7e327224059c0a666fdaf87958488cb4c4754c0cfc99500bb92f364736f6c634300080a0033",
  "immutableReferences": {},
  "source": "//SPDX-License-Identifier: MIT\r\n\r\npragma solidity >=0.6.0 <0.9.0;\r\n\r\nimport \"@openzeppelin/contracts/token/ERC20/IERC20.sol\";\r\n\r\ncontract GameRewards {\r\n    struct Reward {\r\n        uint256 amount;\r\n        bool claimed;\r\n        bool ready;\r\n        bytes32 message;\r\n        bool hasFee;\r\n        bool isFallback;\r\n    }\r\n\r\n    struct Game {\r\n        bytes32 name;\r\n        bool playing;\r\n        uint256 id;\r\n        uint256 entryPrice;\r\n        uint256 totalRewards;\r\n        uint8 rewardsFee;\r\n\r\n        address[] players;\r\n        bytes32 status;\r\n        uint256 time;\r\n    }\r\n\r\n    uint256 private _gameIds;\r\n    uint256 private _collectableFees;\r\n    IERC20 private carsToken;\r\n    uint256 private constant _fallbackAfterEvent = 86400; // 24h in seconds\r\n    address private owner;\r\n\r\n    event GameCreated(uint256 gameId);\r\n\r\n    mapping(uint256 => Game) private _games;\r\n    mapping(uint256 => mapping(address => Reward)) private _rewards;\r\n\r\n    constructor(address _carsToken) {\r\n        carsToken = IERC20(_carsToken);\r\n        owner = msg.sender;\r\n    }\r\n\r\n    modifier onlyOwner {\r\n        require(msg.sender == owner);\r\n        _;\r\n    }\r\n\r\n    modifier gameExists(uint256 _game) {\r\n        Game memory game = _games[_game];\r\n        require(game.playing, \"No such game\");\r\n        _;\r\n    }\r\n\r\n    function setOwner(address newOwner) external onlyOwner {\r\n        owner = newOwner;\r\n    }\r\n\r\n    function claimReward(uint256 _game) public gameExists(_game) {\r\n        Reward memory reward = _rewards[_game][msg.sender];\r\n        Game memory game = _games[_game];\r\n\r\n        require(game.status == \"over\" || reward.isFallback);\r\n        require(reward.ready, \"Reward is not ready to be claim\");\r\n        require(reward.amount > 0, \"Reward is 0\");\r\n        require(!reward.claimed, \"Reward already claimed\");\r\n        require(playerInPlayers(game.players, msg.sender), \"Player did not attend this game\");\r\n\r\n        _rewards[_game][msg.sender].claimed = true;\r\n\r\n        bool transferSuccess = carsToken.transfer(msg.sender, reward.amount);\r\n        require(transferSuccess, \"Reward transfer failed\");\r\n    }\r\n\r\n    function createGame(bytes32 name, uint256 entryPrice) external onlyOwner {\r\n        uint256 id = _gameIds;\r\n\r\n        address[] memory players;\r\n        _games[id] = Game({\r\n            playing: true,\r\n            id: id,\r\n            entryPrice: entryPrice,\r\n            players: players,\r\n            status: \"playing\",\r\n            totalRewards: 0,\r\n            time: block.timestamp,\r\n            name: name,\r\n            rewardsFee: 20 // make dynamic (20 = 1 / 20 = 5%)\r\n        });\r\n\r\n        _gameIds += 1;\r\n\r\n        emit GameCreated(id);\r\n    }\r\n\r\n    function collectFees(address to) external onlyOwner {\r\n        carsToken.transfer(to, _collectableFees);\r\n        _collectableFees = 0;\r\n    }\r\n\r\n    function getCollectableFees() external view returns (uint256) {\r\n        return _collectableFees;\r\n    }\r\n\r\n    function joinGame(uint256 _game) external gameExists(_game) {\r\n        Game memory game = _games[_game];\r\n\r\n        // transfer entryfee to GameRewards\r\n        require(game.status == \"playing\");\r\n        require(carsToken.allowance(msg.sender, address(this)) >= game.entryPrice, \"Not enought CARS Token approved to enter\");\r\n        bool transferSuccess = carsToken.transferFrom(msg.sender, address(this), game.entryPrice);\r\n        require(transferSuccess, \"Token transfer was not successfull\");\r\n\r\n        // check if player is already in the game\r\n        require(!playerInPlayers(game.players, msg.sender), \"Player is already in this game\");\r\n\r\n        _games[_game].totalRewards += game.entryPrice;\r\n        _games[_game].players.push(msg.sender);\r\n    }\r\n\r\n    function setRewards(uint256 _game, address[] memory players, uint256[] memory rewards, bytes32[] memory messages, bool[] memory applyFees) external onlyOwner gameExists(_game) {\r\n        Game memory game = _games[_game];\r\n\r\n        require(game.status == \"playing\");\r\n        require(players.length == rewards.length, \"Not all players have a reward set\");\r\n        require(players.length == game.players.length, \"Rewarded players do not match game players\");\r\n\r\n        uint256 _totalRewards = 0;\r\n        for (uint256 i = 0; i < players.length; i++) {\r\n            address player = players[i];\r\n\r\n            uint256 fee;\r\n            if (applyFees[i]) { // fee doesnt apply on players who aborted / disconnected within the allowed time\r\n                fee = rewards[i] / game.rewardsFee;\r\n                _collectableFees += fee;\r\n            }\r\n\r\n            uint256 reward = rewards[i] - fee;\r\n            _totalRewards += reward;\r\n\r\n            _rewards[_game][player] = Reward({\r\n                amount: reward,\r\n                ready: true,\r\n                claimed: false,\r\n                message: messages[i],\r\n                hasFee: applyFees[i],\r\n                isFallback: false\r\n            });\r\n        }\r\n\r\n        _games[_game].status = \"over\";\r\n        require(_totalRewards <= game.totalRewards, \"More rewards payed that the pricepool\");\r\n    }\r\n\r\n    function listRewards(address player) external view returns (uint256[] memory) {\r\n        uint256 size;\r\n        for (uint256 index = 0; index < _gameIds; index++) {\r\n            if (playerInPlayers(_games[index].players, player)) {\r\n                size++;\r\n            }\r\n        }\r\n\r\n        uint256[] memory result = new uint256[](size);\r\n        uint256 ptr;\r\n\r\n        for (uint256 index = 0; index < _gameIds; index++) {\r\n            if (playerInPlayers(_games[index].players, player)) {\r\n                result[ptr] = index;\r\n                ptr += 1;\r\n            }\r\n        }\r\n\r\n        return result;\r\n    }\r\n\r\n    function getRewardDetail(address player, uint256 game) external view returns (uint256, bool, bool, bytes32, bool) {\r\n        Reward memory reward = _rewards[game][player];\r\n        return (reward.amount, reward.ready, reward.claimed, reward.message, reward.hasFee);\r\n    }\r\n\r\n    function getPlayersByGame(uint256 _game) external view gameExists(_game) returns (address[] memory) {\r\n        return _games[_game].players;\r\n    }\r\n\r\n    function getGameDetail(uint256 _game) external view gameExists(_game) returns (bytes32, bytes32, uint256, uint256, uint8) {\r\n        Game memory game = _games[_game];\r\n        return (game.name, game.status, game.entryPrice, game.time, game.rewardsFee);\r\n    }\r\n\r\n    function fallbackClaim(uint256 _game) external gameExists(_game) {\r\n        Game memory game = _games[_game];\r\n        Reward memory reward = _rewards[_game][msg.sender];\r\n        \r\n        // if it is 24 hours after the event and no rewards were distributed yet\r\n        require(!reward.ready); // reward already paid out\r\n        require(block.timestamp > (game.time + _fallbackAfterEvent)); // not 24 hours\r\n        require(playerInPlayers(game.players, msg.sender)); // player was not in this game\r\n        require(game.status == \"playing\");\r\n\r\n        _games[_game].status = \"cancelled\";\r\n\r\n        _rewards[_game][msg.sender] = Reward({\r\n            amount: game.entryPrice,\r\n            claimed: false,\r\n            ready: true,\r\n            message: \"Fallback\",\r\n            hasFee: false,\r\n            isFallback: true\r\n        });\r\n\r\n        claimReward(_game);\r\n    }\r\n\r\n    function playerInPlayers(address[] memory players, address look) internal pure returns (bool) {\r\n        for (uint i = 0; i < players.length; i++) {\r\n            if (players[i] == look) {\r\n                return true;\r\n            }\r\n        }\r\n\r\n        return false;\r\n    }\r\n}",
  "sourcePath": "C:\\Users\\DESKTOPTOP\\Documents\\crr-public\\solidity\\contracts\\GameRewards.sol",
  "compiler": {
    "name": "solc",
    "version": "0.8.10+commit.fc410830.Emscripten.clang"
  },
  "schemaVersion": "3.4.4",
  "updatedAt": "2022-01-05T19:51:34.792Z",
  "networkType": "ethereum",
  "devdoc": {
    "kind": "dev",
    "methods": {},
    "version": 1
  },
  "userdoc": {
    "kind": "user",
    "methods": {},
    "version": 1
  }
}