{
  "contractName": "GMVotes",
  "abi": [
    {
      "inputs": [],
      "stateMutability": "nonpayable",
      "type": "constructor"
    },
    {
      "anonymous": false,
      "inputs": [
        {
          "indexed": false,
          "internalType": "uint256",
          "name": "id",
          "type": "uint256"
        }
      ],
      "name": "PollStarted",
      "type": "event"
    },
    {
      "inputs": [
        {
          "internalType": "uint256",
          "name": "time",
          "type": "uint256"
        }
      ],
      "name": "addPoll",
      "outputs": [],
      "stateMutability": "nonpayable",
      "type": "function"
    },
    {
      "inputs": [
        {
          "internalType": "uint256",
          "name": "_poll",
          "type": "uint256"
        },
        {
          "internalType": "bytes32",
          "name": "_vote",
          "type": "bytes32"
        }
      ],
      "name": "vote",
      "outputs": [],
      "stateMutability": "nonpayable",
      "type": "function"
    },
    {
      "inputs": [
        {
          "internalType": "uint256",
          "name": "_poll",
          "type": "uint256"
        },
        {
          "internalType": "address",
          "name": "user",
          "type": "address"
        }
      ],
      "name": "hasVoted",
      "outputs": [
        {
          "internalType": "bool",
          "name": "",
          "type": "bool"
        }
      ],
      "stateMutability": "view",
      "type": "function",
      "constant": true
    },
    {
      "inputs": [
        {
          "internalType": "uint256",
          "name": "_poll",
          "type": "uint256"
        }
      ],
      "name": "getResults",
      "outputs": [
        {
          "internalType": "bytes32[]",
          "name": "",
          "type": "bytes32[]"
        },
        {
          "internalType": "uint256",
          "name": "",
          "type": "uint256"
        }
      ],
      "stateMutability": "view",
      "type": "function",
      "constant": true
    },
    {
      "inputs": [],
      "name": "getOpenPolls",
      "outputs": [
        {
          "internalType": "uint256[]",
          "name": "",
          "type": "uint256[]"
        }
      ],
      "stateMutability": "view",
      "type": "function",
      "constant": true
    }
  ],
  "bytecode": "0x608060405234801561001057600080fd5b50336000806101000a81548173ffffffffffffffffffffffffffffffffffffffff021916908373ffffffffffffffffffffffffffffffffffffffff160217905550611317806100606000396000f3fe608060405234801561001057600080fd5b50600436106100575760003560e01c806307d68a521461005c578063438596321461007857806368bb8bb6146100a857806381a60c0d146100c4578063d7fd5c0f146100f5575b600080fd5b61007660048036038101906100719190610c85565b610113565b005b610092600480360381019061008d9190610d10565b6102b5565b60405161009f9190610d6b565b60405180910390f35b6100c260048036038101906100bd9190610dbc565b610481565b005b6100de60048036038101906100d99190610c85565b61074b565b6040516100ec929190610ec9565b60405180910390f35b6100fd610899565b60405161010a9190610fb7565b60405180910390f35b60008054906101000a900473ffffffffffffffffffffffffffffffffffffffff1673ffffffffffffffffffffffffffffffffffffffff163373ffffffffffffffffffffffffffffffffffffffff16146101a1576040517f08c379a000000000000000000000000000000000000000000000000000000000815260040161019890611036565b60405180910390fd5b6000600160008154809291906101b690611085565b9190505590506060806040518060a0016040528085426101d691906110ce565b81526020018481526020016001151581526020018381526020018281525060026000858152602001908152602001600020600082015181600001556020820151816001015560408201518160020160006101000a81548160ff0219169083151502179055506060820151816003019080519060200190610257929190610b39565b506080820151816004019080519060200190610274929190610bc3565b509050507f928c4911106538148065e238ed4194e64d48c07427a4d2c07829ae7bc480f427836040516102a79190611124565b60405180910390a150505050565b600080600260008581526020019081526020016000206040518060a001604052908160008201548152602001600182015481526020016002820160009054906101000a900460ff161515151581526020016003820180548060200260200160405190810160405280929190818152602001828054801561038a57602002820191906000526020600020905b8160009054906101000a900473ffffffffffffffffffffffffffffffffffffffff1673ffffffffffffffffffffffffffffffffffffffff1681526020019060010190808311610340575b50505050508152602001600482018054806020026020016040519081016040528092919081815260200182805480156103e257602002820191906000526020600020905b8154815260200190600101908083116103ce575b505050505081525050905060005b816060015151811015610474576000826060015182815181106104165761041561113f565b5b602002602001015190508473ffffffffffffffffffffffffffffffffffffffff168173ffffffffffffffffffffffffffffffffffffffff161415610460576001935050505061047b565b50808061046c90611085565b9150506103f0565b5060009150505b92915050565b6000600260008481526020019081526020016000206040518060a001604052908160008201548152602001600182015481526020016002820160009054906101000a900460ff161515151581526020016003820180548060200260200160405190810160405280929190818152602001828054801561055557602002820191906000526020600020905b8160009054906101000a900473ffffffffffffffffffffffffffffffffffffffff1673ffffffffffffffffffffffffffffffffffffffff168152602001906001019080831161050b575b50505050508152602001600482018054806020026020016040519081016040528092919081815260200182805480156105ad57602002820191906000526020600020905b815481526020019060010190808311610599575b505050505081525050905080604001516105fc576040517f08c379a00000000000000000000000000000000000000000000000000000000081526004016105f3906111ba565b60405180910390fd5b80600001514210610642576040517f08c379a000000000000000000000000000000000000000000000000000000000815260040161063990611226565b60405180910390fd5b600061064e84336102b5565b90508015610691576040517f08c379a000000000000000000000000000000000000000000000000000000000815260040161068890611292565b60405180910390fd5b60026000858152602001908152602001600020600301339080600181540180825580915050600190039060005260206000200160009091909190916101000a81548173ffffffffffffffffffffffffffffffffffffffff021916908373ffffffffffffffffffffffffffffffffffffffff1602179055506002600085815260200190815260200160002060040183908060018154018082558091505060019003906000526020600020016000909190919091505550505050565b6060600080600260008581526020019081526020016000206040518060a001604052908160008201548152602001600182015481526020016002820160009054906101000a900460ff161515151581526020016003820180548060200260200160405190810160405280929190818152602001828054801561082257602002820191906000526020600020905b8160009054906101000a900473ffffffffffffffffffffffffffffffffffffffff1673ffffffffffffffffffffffffffffffffffffffff16815260200190600101908083116107d8575b505050505081526020016004820180548060200260200160405190810160405280929190818152602001828054801561087a57602002820191906000526020600020905b815481526020019060010190808311610866575b5050505050815250509050806080015181600001519250925050915091565b606060008060015467ffffffffffffffff8111156108ba576108b96112b2565b5b6040519080825280602002602001820160405280156108e85781602001602082028036833780820191505090505b50905060005b600154811015610a89576000600260008381526020019081526020016000206040518060a001604052908160008201548152602001600182015481526020016002820160009054906101000a900460ff16151515158152602001600382018054806020026020016040519081016040528092919081815260200182805480156109cc57602002820191906000526020600020905b8160009054906101000a900473ffffffffffffffffffffffffffffffffffffffff1673ffffffffffffffffffffffffffffffffffffffff1681526020019060010190808311610982575b5050505050815260200160048201805480602002602001604051908101604052809291908181526020018280548015610a2457602002820191906000526020600020905b815481526020019060010190808311610a10575b505050505081525050905080604001518015610a435750806000015142105b15610a755781838580610a5590611085565b965081518110610a6857610a6761113f565b5b6020026020010181815250505b508080610a8190611085565b9150506108ee565b5060008267ffffffffffffffff811115610aa657610aa56112b2565b5b604051908082528060200260200182016040528015610ad45781602001602082028036833780820191505090505b50905060005b83811015610b2f57828181518110610af557610af461113f565b5b6020026020010151828281518110610b1057610b0f61113f565b5b6020026020010181815250508080610b2790611085565b915050610ada565b5080935050505090565b828054828255906000526020600020908101928215610bb2579160200282015b82811115610bb15782518260006101000a81548173ffffffffffffffffffffffffffffffffffffffff021916908373ffffffffffffffffffffffffffffffffffffffff16021790555091602001919060010190610b59565b5b509050610bbf9190610c10565b5090565b828054828255906000526020600020908101928215610bff579160200282015b82811115610bfe578251825591602001919060010190610be3565b5b509050610c0c9190610c2d565b5090565b5b80821115610c29576000816000905550600101610c11565b5090565b5b80821115610c46576000816000905550600101610c2e565b5090565b600080fd5b6000819050919050565b610c6281610c4f565b8114610c6d57600080fd5b50565b600081359050610c7f81610c59565b92915050565b600060208284031215610c9b57610c9a610c4a565b5b6000610ca984828501610c70565b91505092915050565b600073ffffffffffffffffffffffffffffffffffffffff82169050919050565b6000610cdd82610cb2565b9050919050565b610ced81610cd2565b8114610cf857600080fd5b50565b600081359050610d0a81610ce4565b92915050565b60008060408385031215610d2757610d26610c4a565b5b6000610d3585828601610c70565b9250506020610d4685828601610cfb565b9150509250929050565b60008115159050919050565b610d6581610d50565b82525050565b6000602082019050610d806000830184610d5c565b92915050565b6000819050919050565b610d9981610d86565b8114610da457600080fd5b50565b600081359050610db681610d90565b92915050565b60008060408385031215610dd357610dd2610c4a565b5b6000610de185828601610c70565b9250506020610df285828601610da7565b9150509250929050565b600081519050919050565b600082825260208201905092915050565b6000819050602082019050919050565b610e3181610d86565b82525050565b6000610e438383610e28565b60208301905092915050565b6000602082019050919050565b6000610e6782610dfc565b610e718185610e07565b9350610e7c83610e18565b8060005b83811015610ead578151610e948882610e37565b9750610e9f83610e4f565b925050600181019050610e80565b5085935050505092915050565b610ec381610c4f565b82525050565b60006040820190508181036000830152610ee38185610e5c565b9050610ef26020830184610eba565b9392505050565b600081519050919050565b600082825260208201905092915050565b6000819050602082019050919050565b610f2e81610c4f565b82525050565b6000610f408383610f25565b60208301905092915050565b6000602082019050919050565b6000610f6482610ef9565b610f6e8185610f04565b9350610f7983610f15565b8060005b83811015610faa578151610f918882610f34565b9750610f9c83610f4c565b925050600181019050610f7d565b5085935050505092915050565b60006020820190508181036000830152610fd18184610f59565b905092915050565b600082825260208201905092915050565b7f596f7520617265206e6f7420746865206f776e65720000000000000000000000600082015250565b6000611020601583610fd9565b915061102b82610fea565b602082019050919050565b6000602082019050818103600083015261104f81611013565b9050919050565b7f4e487b7100000000000000000000000000000000000000000000000000000000600052601160045260246000fd5b600061109082610c4f565b91507fffffffffffffffffffffffffffffffffffffffffffffffffffffffffffffffff8214156110c3576110c2611056565b5b600182019050919050565b60006110d982610c4f565b91506110e483610c4f565b9250827fffffffffffffffffffffffffffffffffffffffffffffffffffffffffffffffff0382111561111957611118611056565b5b828201905092915050565b60006020820190506111396000830184610eba565b92915050565b7f4e487b7100000000000000000000000000000000000000000000000000000000600052603260045260246000fd5b7f706f6c6c206973206e6f74206163746976650000000000000000000000000000600082015250565b60006111a4601283610fd9565b91506111af8261116e565b602082019050919050565b600060208201905081810360008301526111d381611197565b9050919050565b7f506f6c6c2068617320616c726561647920656e64656400000000000000000000600082015250565b6000611210601683610fd9565b915061121b826111da565b602082019050919050565b6000602082019050818103600083015261123f81611203565b9050919050565b7f757365722068617320616c726561647920766f74656400000000000000000000600082015250565b600061127c601683610fd9565b915061128782611246565b602082019050919050565b600060208201905081810360008301526112ab8161126f565b9050919050565b7f4e487b7100000000000000000000000000000000000000000000000000000000600052604160045260246000fdfea26469706673582212208d443c9120e31f81eeb651a314d91a323233a23a9200448c28e4782f2282252964736f6c634300080a0033",
  "immutableReferences": {},
  "source": "//SPDX-License-Identifier: MIT\r\n\r\npragma solidity >= 0.8.10;\r\n\r\ncontract GMVotes {\r\n    event PollStarted(uint256 id);\r\n\r\n    struct Poll {\r\n        uint256 end;\r\n        uint256 id;\r\n        bool active;\r\n        address[] voters;\r\n        bytes32[] votes;\r\n    }\r\n\r\n    address private owner;\r\n    uint256 private pollId;\r\n    mapping(uint256 => Poll) private _polls;\r\n\r\n    constructor() {\r\n        owner = msg.sender;\r\n    }\r\n\r\n    modifier onlyOwner {\r\n        require(msg.sender == owner, \"You are not the owner\");\r\n        _;\r\n    }\r\n\r\n    function addPoll(uint256 time) external onlyOwner {\r\n        uint256 id = pollId++;\r\n\r\n        address[] memory voters;\r\n        bytes32[] memory votes;\r\n\r\n        _polls[id] = Poll({\r\n            id: id,\r\n            end: block.timestamp + time,\r\n            active: true,\r\n            voters: voters,\r\n            votes: votes\r\n        });\r\n\r\n        emit PollStarted(id);\r\n    }\r\n\r\n    function vote(uint256 _poll, bytes32 _vote) external {\r\n        Poll memory poll = _polls[_poll];\r\n\r\n        require(poll.active, \"poll is not active\");\r\n        require(block.timestamp < poll.end, \"Poll has already ended\");\r\n\r\n        bool _hasVoted = hasVoted(_poll, msg.sender);\r\n        require(!_hasVoted, \"user has already voted\");\r\n\r\n        _polls[_poll].voters.push(msg.sender);\r\n        _polls[_poll].votes.push(_vote);\r\n    }\r\n\r\n    function hasVoted(uint256 _poll, address user) public view returns (bool) {\r\n        Poll memory poll = _polls[_poll];\r\n        \r\n        for (uint256 index; index < poll.voters.length; index++) {\r\n            address voter = poll.voters[index];\r\n            if (voter == user) {\r\n                return true;\r\n            }\r\n        }\r\n\r\n        return false;\r\n    }\r\n\r\n    function getResults(uint256 _poll) external view returns (bytes32[] memory, uint256) {\r\n        Poll memory poll = _polls[_poll];\r\n        return (poll.votes, poll.end);\r\n    }\r\n\r\n    function getOpenPolls() external view returns (uint256[] memory) {\r\n        uint256 size;\r\n        uint256[] memory polls = new uint256[](pollId);\r\n\r\n        for (uint256 index; index < pollId; index++) {\r\n            Poll memory poll = _polls[index];\r\n            if (poll.active && block.timestamp < poll.end) {\r\n                polls[size++] = index;\r\n            }\r\n        }\r\n\r\n        uint256[] memory available = new uint256[](size);\r\n        for (uint256 index; index < size; index++) {\r\n            available[index] = polls[index];\r\n        }\r\n\r\n        return available;\r\n    }\r\n}",
  "sourcePath": "C:\\Users\\DESKTOPTOP\\Documents\\crr-public\\solidity\\contracts\\GMVotes.sol",
  "compiler": {
    "name": "solc",
    "version": "0.8.10+commit.fc410830.Emscripten.clang"
  },
  "schemaVersion": "3.4.4",
  "updatedAt": "2022-01-05T19:51:34.810Z",
  "networkType": "ethereum",
  "devdoc": {
    "kind": "dev",
    "methods": {},
    "version": 1
  },
  "userdoc": {
    "kind": "user",
    "methods": {},
    "version": 1
  }
}