{
  "contractName": "PlayerNames",
  "abi": [
    {
      "inputs": [],
      "stateMutability": "nonpayable",
      "type": "constructor"
    },
    {
      "inputs": [
        {
          "internalType": "bytes32",
          "name": "name",
          "type": "bytes32"
        }
      ],
      "name": "claim",
      "outputs": [],
      "stateMutability": "nonpayable",
      "type": "function"
    },
    {
      "inputs": [
        {
          "internalType": "bytes32",
          "name": "bStr",
          "type": "bytes32"
        }
      ],
      "name": "available",
      "outputs": [
        {
          "internalType": "bool",
          "name": "",
          "type": "bool"
        }
      ],
      "stateMutability": "view",
      "type": "function",
      "constant": true
    },
    {
      "inputs": [
        {
          "internalType": "address",
          "name": "player",
          "type": "address"
        }
      ],
      "name": "getNameByAddress",
      "outputs": [
        {
          "internalType": "bytes32",
          "name": "",
          "type": "bytes32"
        }
      ],
      "stateMutability": "view",
      "type": "function",
      "constant": true
    }
  ],
  "bytecode": "0x608060405234801561001057600080fd5b507f64657600000000000000000000000000000000000000000000000000000000006000808073ffffffffffffffffffffffffffffffffffffffff1673ffffffffffffffffffffffffffffffffffffffff16815260200190815260200160002081905550610ba9806100836000396000f3fe608060405234801561001057600080fd5b50600436106100415760003560e01c80636932854f146100465780637c80bb4f14610076578063bd66528a146100a6575b600080fd5b610060600480360381019061005b919061074c565b6100c2565b60405161006d9190610794565b60405180910390f35b610090600480360381019061008b919061080d565b61013e565b60405161009d9190610849565b60405180910390f35b6100c060048036038101906100bb919061074c565b610186565b005b6000806100ce83610414565b90506100d9816105b9565b801561010357506001600082815260200190815260200160002060009054906101000a900460ff16155b801561011e5750600560ff16610118846106a4565b60ff1610155b801561013657506020610130846106a4565b60ff1611155b915050919050565b60008060008373ffffffffffffffffffffffffffffffffffffffff1673ffffffffffffffffffffffffffffffffffffffff168152602001908152602001600020549050919050565b600061019182610414565b9050600560ff166101a1836106a4565b60ff1610156101e5576040517f08c379a00000000000000000000000000000000000000000000000000000000081526004016101dc906108c1565b60405180910390fd5b60206101f0836106a4565b60ff161115610234576040517f08c379a000000000000000000000000000000000000000000000000000000000815260040161022b9061092d565b60405180910390fd5b61023d816105b9565b61027c576040517f08c379a000000000000000000000000000000000000000000000000000000000815260040161027390610999565b60405180910390fd5b6001600082815260200190815260200160002060009054906101000a900460ff16156102dd576040517f08c379a00000000000000000000000000000000000000000000000000000000081526004016102d490610a05565b60405180910390fd5b60008060003373ffffffffffffffffffffffffffffffffffffffff1673ffffffffffffffffffffffffffffffffffffffff16815260200190815260200160002054146103a25760008060003373ffffffffffffffffffffffffffffffffffffffff1673ffffffffffffffffffffffffffffffffffffffff168152602001908152602001600020549050600061037182610414565b905060006001600083815260200190815260200160002060006101000a81548160ff02191690831515021790555050505b816000803373ffffffffffffffffffffffffffffffffffffffff1673ffffffffffffffffffffffffffffffffffffffff16815260200190815260200160002081905550600180600083815260200190815260200160002060006101000a81548160ff0219169083151502179055505050565b600080602060ff1667ffffffffffffffff81111561043557610434610a25565b5b6040519080825280601f01601f1916602001820160405280156104675781602001600182028036833780820191505090505b50905060005b602060ff168110156105a557604184826020811061048e5761048d610a54565b5b1a60f81b60f81c60ff16101580156104c35750605a8482602081106104b6576104b5610a54565b5b1a60f81b60f81c60ff1611155b156105385760208482602081106104dd576104dc610a54565b5b1a60f81b60f81c6104ee9190610abf565b60f81b82828151811061050457610503610a54565b5b60200101907effffffffffffffffffffffffffffffffffffffffffffffffffffffffffffff1916908160001a905350610592565b83816020811061054b5761054a610a54565b5b1a60f81b82828151811061056257610561610a54565b5b60200101907effffffffffffffffffffffffffffffffffffffffffffffffffffffffffffff1916908160001a9053505b808061059d90610b00565b91505061046d565b506000819050602081015192505050919050565b60008060005b602060ff168110156106985760008482602081106105e0576105df610a54565b5b1a60f81b60f81c90508280156105fa575060008160ff1614155b1561060b576000935050505061069f565b60308160ff1610158015610623575060398160ff1611155b1561062e5750610685565b60618160ff16101580156106465750607a8160ff1611155b156106515750610685565b605f8160ff1614156106635750610685565b60008160ff161415610679576001925050610685565b6000935050505061069f565b808061069090610b00565b9150506105bf565b5060019150505b919050565b600080600090505b602060ff168160ff161015610706576000838260ff16602081106106d3576106d2610a54565b5b1a60f81b60f81c905060008160ff1614156106f257819250505061070c565b5080806106fe90610b49565b9150506106ac565b50602090505b919050565b600080fd5b6000819050919050565b61072981610716565b811461073457600080fd5b50565b60008135905061074681610720565b92915050565b60006020828403121561076257610761610711565b5b600061077084828501610737565b91505092915050565b60008115159050919050565b61078e81610779565b82525050565b60006020820190506107a96000830184610785565b92915050565b600073ffffffffffffffffffffffffffffffffffffffff82169050919050565b60006107da826107af565b9050919050565b6107ea816107cf565b81146107f557600080fd5b50565b600081359050610807816107e1565b92915050565b60006020828403121561082357610822610711565b5b6000610831848285016107f8565b91505092915050565b61084381610716565b82525050565b600060208201905061085e600083018461083a565b92915050565b600082825260208201905092915050565b7f4e616d6520697320746f6f2073686f7274000000000000000000000000000000600082015250565b60006108ab601183610864565b91506108b682610875565b602082019050919050565b600060208201905081810360008301526108da8161089e565b9050919050565b7f4e616d6520697320746f6f206c6f6e6700000000000000000000000000000000600082015250565b6000610917601083610864565b9150610922826108e1565b602082019050919050565b600060208201905081810360008301526109468161090a565b9050919050565b7f4e616d6520636f6e7461696e7320696e76616c69642063686172616374657273600082015250565b6000610983602083610864565b915061098e8261094d565b602082019050919050565b600060208201905081810360008301526109b281610976565b9050919050565b7f4e616d6520697320616c72656164792074616b656e0000000000000000000000600082015250565b60006109ef601583610864565b91506109fa826109b9565b602082019050919050565b60006020820190508181036000830152610a1e816109e2565b9050919050565b7f4e487b7100000000000000000000000000000000000000000000000000000000600052604160045260246000fd5b7f4e487b7100000000000000000000000000000000000000000000000000000000600052603260045260246000fd5b600060ff82169050919050565b7f4e487b7100000000000000000000000000000000000000000000000000000000600052601160045260246000fd5b6000610aca82610a83565b9150610ad583610a83565b92508260ff03821115610aeb57610aea610a90565b5b828201905092915050565b6000819050919050565b6000610b0b82610af6565b91507fffffffffffffffffffffffffffffffffffffffffffffffffffffffffffffffff821415610b3e57610b3d610a90565b5b600182019050919050565b6000610b5482610a83565b915060ff821415610b6857610b67610a90565b5b60018201905091905056fea264697066735822122023bffa738dfd13109cac8a43cc4cf46a50b1ee2f80b54101235895799f43df0c64736f6c634300080a0033",
  "immutableReferences": {},
  "source": "//SPDX-License-Identifier: MIT\r\n\r\npragma solidity >=0.6.0 <0.9.0;\r\n\r\ncontract PlayerNames {\r\n    uint8 constant private _minNameLen = 5;\r\n\r\n    mapping(address => bytes32) private _nameByAddress;\r\n    mapping(bytes32 => bool) private _nameTaken;\r\n\r\n    constructor() {\r\n        _nameByAddress[address(0)] = \"dev\"; // no need to add it to namesTakes, too short to claim anyway\r\n    }\r\n\r\n    function claim(bytes32 name) external {\r\n        bytes32 lower = _toLower(name);\r\n        require(_strLen(name) >= _minNameLen, \"Name is too short\");\r\n        require(_strLen(name) <= 32, \"Name is too long\");\r\n        require(_validChars(lower), \"Name contains invalid characters\");\r\n        require(!_nameTaken[lower], \"Name is already taken\");\r\n\r\n        // release old name if there was one\r\n        if (_nameByAddress[msg.sender] != \"\") {\r\n            bytes32 oldName = _nameByAddress[msg.sender];\r\n            bytes32 oldLower = _toLower(oldName);\r\n            _nameTaken[oldLower] = false;\r\n        }\r\n\r\n        _nameByAddress[msg.sender] = name;\r\n        _nameTaken[lower] = true;\r\n    }\r\n\r\n    function available(bytes32 bStr) external view returns (bool) {\r\n        bytes32 lower = _toLower(bStr);\r\n        return _validChars(lower) && !_nameTaken[lower] && _strLen(bStr) >= _minNameLen && _strLen(bStr) <= 32;\r\n    }\r\n\r\n    function getNameByAddress(address player) external view returns (bytes32) {\r\n        return _nameByAddress[player];\r\n    }\r\n\r\n    function _validChars(bytes32 bStr) internal pure returns (bool) {\r\n        bool hadNull;\r\n\r\n        for (uint i = 0; i < bStr.length; i++) {\r\n            uint8 char = uint8(bStr[i]);\r\n\r\n            // check null trick\r\n            if (hadNull && char != 0) {\r\n                return false;\r\n            }\r\n\r\n            // numeric\r\n            if (char >= 48 && char <= 57) continue;\r\n\r\n            // lowercasecase\r\n            if (char >= 97 && char <= 122) continue;\r\n\r\n            // underscore\r\n            if (char == 95) continue;\r\n\r\n            // empty byte\r\n            if (char == 0) {\r\n                hadNull = true;\r\n                continue;\r\n            }\r\n\r\n            return false;\r\n        }\r\n\r\n        return true;\r\n    }\r\n\r\n    function _toLower(bytes32 name) internal pure returns (bytes32 result) {\r\n        bytes memory bLower = new bytes(name.length);\r\n        for (uint i = 0; i < name.length; i++) {\r\n            if ((uint8(name[i]) >= 65) && (uint8(name[i]) <= 90)) {\r\n                bLower[i] = bytes1(uint8(name[i]) + 32);\r\n            } else {\r\n                bLower[i] = name[i];\r\n            }\r\n        }\r\n\r\n        string memory source = string(bLower);\r\n        assembly {\r\n            result := mload(add(source, 32))\r\n        }\r\n    }\r\n\r\n    // this is used because bytes32 is always 32 length, this just checks for the null terminator\r\n    function _strLen(bytes32 bStr) internal pure returns (uint8) {\r\n        for (uint8 i = 0; i < bStr.length; i++) {\r\n            uint8 char = uint8(bStr[i]);\r\n\r\n            if (char == 0) {\r\n                return i;\r\n            }\r\n        }\r\n\r\n        return 32;\r\n    }\r\n}",
  "sourcePath": "C:\\Users\\DESKTOPTOP\\Documents\\crr-public\\solidity\\contracts\\PlayerNames.sol",
  "compiler": {
    "name": "solc",
    "version": "0.8.10+commit.fc410830.Emscripten.clang"
  },
  "schemaVersion": "3.4.4",
  "updatedAt": "2022-01-05T19:51:34.781Z",
  "networkType": "ethereum",
  "devdoc": {
    "kind": "dev",
    "methods": {},
    "version": 1
  },
  "userdoc": {
    "kind": "user",
    "methods": {},
    "version": 1
  }
}